:1000000000000320D101000035250100ED2401008E
:10001000ED240100ED240100ED240100ED24010098
:10002000ED240100ED240100ED240100352501003F
:1000300035250100ED24010035250100DD240100F6
:100040003525010035250100352501003525010044
:100050003525010035250100352501003525010034
:100060003525010035250100352501003525010024
:100070003525010035250100352501003525010014
:100080003525010035250100352501003525010004
:1000900035250100352501003525010035250100F4
:1000A00065C10000B5C600003525010035250100F9
:1000B000352501003525010035250100DD3501001C
:1000C000352501007D58010035250100995E0100AC
:1000D0003525010049650100352501003525010060
:1000E00035250100352501003525010035250100A4
:1000F0003525010035250100352501003525010094
:100100003525010035250100352501003525010083
:10011000352501009D3801003525010035250100F8
:100120003525010035250100352501003525010063
:100130003525010035250100352501003525010053
:100140003525010035250100316B01003525010001
:100150003525010035250100352501003525010033
:10016000352501003525010061CC00003525010051
:100170003525010035250100352501003525010013
:100180003525010035250100352501003525010003
:1001900035250100352501001172010035250100CA
:1001A0003525010035250100352501000DD200005F
:1001B00035250100352501003525010035250100D3
:1001C00035250100352501003525010035250100C3
:1001D0005C4B4CF2205210B51A804DF628121A8052
:1001E00000BF00BF12F0AAF9574B4FF030621A60FF
:1001F000564A9A60564ADA60564B4FF470021A60BB
:10020000554B564A1A60564A136813F4807304D14A
:1002100054490B604FF4A8531360534B1A781107DD
:1002200003D51A7842F008021A70504B5049AA229E
:100230001A70504A504B8B4204D252F8040F43F8C4
:10024000040BF8E74D4B4E4900228B4202D243F893
:10025000042BFAE74B494C4A002352F8230041F89B
:1002600023000133742BF8D1484B494A802103F80D
:10027000011B9342FBD1474B424A1A60464B8A22EC
:100280001A70A3F5805324225A70A0221A709A790A
:100290009207FCD59A79D406FCD4404A937903F0AE
:1002A0000C03082BFAD13E4B60221A7002331A78E5
:1002B000802AFCD1394B00221A714E225A719A7948
:1002C0009006FCD59979354A4906FBD5354B364918
:1002D00019600821596020231370937903F00C03EF
:1002E0000C2BFAD1314B324A1A60324B324A1A6027
:1002F00000225A60072243F8042C304AC3F80C2D20
:1003000062B612F0E3FB174B1B68DA0705D52C48E1
:1003100012F0CAFB2B4B2C4A1A602C4B1B785B0645
:1003200009D5284C284B22689A4204D1244812F05F
:10033000BBFB0023236019F06FFC03F00BFF14F0EC
:100340009BFBFEE70E20054030800440823F040006
:100350000100002B88ED00E0002008E0030000858C
:1003600010D0034014D0034002D0074000E0074003
:10037000E01DFF1FA88B02003007FF1FE01DFF1FBD
:10038000882EFF1F0002FF1F0000000000E400E0B5
:1003900064E400E008ED00E0005006400040064044
:1003A00001E007404480044000000703048004404B
:1003B000C010050014E000E07FA903000000202029
:1003C000EB5D6F021CE00340A5C3945A00F00740A8
:1003D000FFFFFFFFFFFFFFFFFFFFFFFFFFFFFFFF2D
:1003E000FFFFFFFFFFFFFFFFFFFFFFFFFFFFFFFF1D
:1003F000FFFFFFFFFFFFFFFFFFFFFFFFFFFFFFFF0D
:10040000FFFFFFFFFFFFFFFFFFFFFFFFDEF9FFFF23
:1004100010B5054C237833B9044B13B10448AFF33E
:1004200000800123237010BDE01DFF1F00000000AD
:10043000A48B0200084B10B51BB108490848AFF364
:1004400000800848036803B910BD074B002BFBD0A0
:10045000BDE81040184700BF00000000E41DFF1F6A
:10046000A48B0200E01DFF1F000000002DE9F04FEB
:100470009088D58885B0A84202915BD84149424B0B
:1004800009781E78414C424B94F800B01B78414FDC
:10049000DFF804E1DFF804C1D7F800A09EF80040BF
:1004A0000394C1EB8178C1EB880806EB860608EB64
:1004B00006094FF4C86101FB0B91C3EB83770CFB7A
:1004C0000319C3EB870301930021052313FB0B03DF
:1004D000EF2B2BDC019BD84228D413885488A342ED
:1004E00024D8039D00EB800C4FEA8C1C35BB029D89
:1004F00005EB41059F19B7F5A07F0EDA13EB080F46
:1005000003EB0C0709D42C884F441CB94FF00104AD
:100510002C8001242AF81740548801339BB29C4256
:1005200001F1010105F10205E4D2D588013080B264
:10053000A842CAD9012005B0BDE8F08F029D05EBA5
:10054000410503EB060EBEF5A07F03F1010701F1A3
:10055000010111DA13EB080F63440DD44B442C88CE
:10056000AAEB430303F515331CB94FF001042C80AB
:100570000124A3F8FE435488BBB2A34205F102054F
:10058000DFD9D2E7D426FF1FC026FF1F1D1EFF1F85
:100590009426FF1F041EFF1F9626FF1FC0F9FFFFB2
:1005A0002DE9F04F89B0B2F804E00191D1888E4571
:1005B00000F291807B4B7C481C787C4F7C4B90F800
:1005C00000801D783F787B4B029792467A4A7B4E9B
:1005D00012780392C4EB84377948D3ED004A367819
:1005E00000680096C4EB870308EB88071F44039B51
:1005F00007900EEB8E0603EB8303C5EBC50007EBFC
:10060000461603EB83036F4A00EB001006EB43161C
:10061000C5EB857900EB0010C5EB890306EB401CA8
:10062000C4EB847B127806931FFA8CFCC4EB8B0B13
:100630004FF005090027B7EE004ABDF80C0005236E
:1006400013FB00E3772B3CDC069B1EEB030F38D437
:10065000BAF80030BAF802509D4232D30137CDF8D3
:1006600014E0BFB2DDF81CE021E0C3F19F01C9B284
:1006700019FB08149F2C13DC11EB0B0F10D4029CF8
:100680006144022C89B2019C2ED034F810400098AD
:1006900028B3C1F595417F312EF81140BAF80250C8
:1006A00001339BB2791C9D4289B206D30F46781E56
:1006B00080B2002AD9D0D9B2DAE7DDF814E0BAF86E
:1006C00006100EF1010E1FFA8EFE0CF1A00C8E45E5
:1006D0001FFA8CFCB1D9012009B0BDE8F08F2EF8CB
:1006E0001140BAF80250DBE734F810000412C510CC
:1006F00004F0F80407EE904A05F0FC0406EE904A78
:10070000009CC000002C4AD0C1F595467F363EF8CB
:100710001640E51005F0FC0507EE105AF8EEE66A03
:10072000C0B2F8EEC75A34EE646A07EE100A66EEFD
:10073000A46AE000C0B22512E6EE256A05F0F804CE
:1007400005EE900AB8EEC77AB8EEE55AF8EEE77A09
:1007500005EE904A27EE247AF8EEE55A67EEA47A81
:10076000A6EE057AE5EE867AFCEEE66ABCEEC77A7E
:10077000CDED046AFCEEE77A9DF8106017EE105A92
:1007800017EE900AF40004F0E004C5F3C40500F08D
:10079000F8002C4340EA561044EA002477E73EF87C
:1007A0001140B6E7D426FF1FC026FF1FB226FF1F49
:1007B0009426FF1F181EFF1F1D1EFF1F9626FF1FDA
:1007C000FC1DFF1FCA28FF1F08300EF067BC00BFCA
:1007D00000B583B002AB012203F8011D08301946B1
:1007E0000EF05CFC03B05DF804FB00BF38B5856F0C
:1007F000AC88EB88E41A944228BF144631B108460D
:1008000029682246194411F0ABFBEB882344EB80A6
:10081000204638BD00F58C6010F078BC2DE9F04121
:100820002F4B304F1B7884B00BB93B78B3B13A787B
:100830002C4B022A3BD01A78032A02D004B0BDE820
:10084000F08101221A7028480BF08AFB26480BF031
:10085000BFFB0028F7D104B0BDE8F081234B1B7823
:10086000002BE4D1DFF8908098F80030002BDED127
:100870001F4B1B78002BDAD11E4D2B6802930A20E8
:10088000029E12F0F3FA2B680193019CA41B1648F8
:100890000BF066FB14480BF09BFBD0B1B4F57A7FEC
:1008A00012DD01233B703A780E4B022AC3D103229A
:1008B0001A700D480BF054FB0B480BF089FB002815
:1008C000F7D104B0BDE8F0812B680393039CA41B0F
:1008D000DDE7B4F57A7FE4DA022388F80030A6E792
:1008E0002C1EFF1FE026FF1F4C1EFF1F8D20FF1F29
:1008F0000C1EFF1FC429FF1F001EFF1F12F0CEB8E1
:1009000000F58C6010F0C0BD00F58C6010F070B97F
:1009100000F58C6010F0E6B82DE9F04F2DED028B5C
:100920004FF0000A8FB04FF0000BCDE904ABCDE9DA
:1009300002ABCDE900AB01F5C8730C46D046D946F1
:100940000992851E069335F8026F304618F076FD41
:1009500002460B464046494618F024FC8046304685
:10096000894618F05BFD02460B4618F0CDFD0246A5
:100970000B46DDE9000118F015FC07EE906AB4ECB7
:10098000018AF8EEE77ACDE9000167EE887A17EE82
:10099000900A18F065FD02460B46DDE9020118F0E9
:1009A00001FCCDE9020118EE100A18F059FD0646C7
:1009B0000F4602460B46DDE9040118F0F3FB324610
:1009C000CDE904013B463046394618F09DFD0B4603
:1009D00002465946504618F0E5FB069BA342824664
:1009E0008B46B0D142464B464046494618F08CFDF6
:1009F000002204460D46524BDDE9000118F084FD4B
:100A000022462B4618F0CCFB00220023CDE906013C
:100A100018F0E2FF064600287DD1DDE904234046B8
:100A2000494618F071FD0022CDE90A01444B454FBB
:100A3000DDE9020118F068FDDDE90A2318F0B0FBDA
:100A4000DDE9062318F08AFE19F036F83E4B1860EF
:100A5000DDE90423DDE9000118F056FDDDE902239C
:100A6000CDE90C014046494618F04EFD02460B46C2
:100A7000DDE90C0118F094FBDDE9062318F06EFEA9
:100A800019F01AF83860099F002F52D0DDE90423CD
:100A90001046194618F038FD0022294B18F05EFE6A
:100AA00002460B465046594618F07AFB0022804613
:100AB0008946234B2046294618F050FE02460B4635
:100AC000DDE9000118F06CFB02460B464046494642
:100AD00018F01AFD41EC100B17F0B6F8DDE90A0129
:100AE0000022174B8DED000B18F038FE02460B4626
:100AF000DDE9020118F054FB9DED000B53EC102BC7
:100B000018F02CFE18F0D8FF386030460FB0BDEC5E
:100B1000028BBDE8F08F0B4A0B49002313600126BE
:100B2000099A0B60304613600FB0BDEC028BBDE834
:100B3000F08F3E4630460FB0BDEC028BBDE8F08F23
:100B400000005940D025FF1FEC1EFF1F70B5027832
:100B50008AB000232F2A8DF804308DF805301BD081
:100B60000246012301A814490EF05CF8064660B164
:100B70009DF8043013F070030AD001AC0FCC0E4D79
:100B80000FC50FCC0FC523682B6030460AB070BD6F
:100B90001E4630460AB070BD4378002BE0D10648AF
:100BA0000DF0F4FF054901F23C400EF0BBF806469B
:100BB00030460AB070BD00BFE824FF1FAC20FF1F05
:100BC00070B5044608460D461AF0FAF82368024646
:100BD000294620465B68BDE870401847002AF0B5FA
:100BE000144FDFF858E014BF4FF060554FF06455D4
:100BF000002602E0172C08D0264637F8022F9EFB6D
:100C0000F2F2914206F10104F4D31A0701D545F03E
:100C10008065094A5B0752F8262007D5130903F4BB
:100C2000706322F4704245F000751A431543056065
:100C3000F0BD00BFFA8002002C8102000087930300
:100C400030B41E4B1A7812B372B61B78DC0707D586
:100C50001B491C4A0D6812681B4C2A4022600A601E
:100C6000990707D51949174A0D685268164C2A404A
:100C70000A6062605A0707D51549124A0D689268E2
:100C8000114C2A400A60A2601B070ED462B6114BB9
:100C9000DA68824207D010491960104AD86040F0E3
:100CA000804119611A6030BC70470D4A054B1468C9
:100CB000DB68054923401360CB60E7E79829FF1FF5
:100CC00080E100E07829FF1F8829FF1F84E100E010
:100CD00088E100E000C0024001401F0000001F80CA
:100CE0008CE100E00D4B1B78BBB1D80703D50C4954
:100CF0000C4A09681160990703D509490A4A4968ED
:100D000011605A0703D50649084A896811601B0714
:100D100003D5034A064BD2681A6070479829FF1F13
:100D20008829FF1F00E100E004E100E008E100E0A5
:100D30000CE100E0F0B5DFF8B4C0254B254A264FA2
:100D400083B04FF4107E4FF480760C464FF4007160
:100D5000CCF800600546C3F800E001A8116000234C
:100D600001221E493E60FFF739FF0198FFF768FF37
:100D70001B4B1C49EDB210204FF000420860DA62B4
:100D800019465D63CB6A164A002BFBDAE4B24FF0DA
:100D90000043916BD36210465463C36A104A002B20
:100DA000FBDA114B926B0B4E0B4C10221A60FFF7C3
:100DB00099FF0E49064A4FF480734FF400754FF4C3
:100DC0001070336025600860136003B0F0BD00BF91
:100DD00004C004400CC004401CB0044000093D00A5
:100DE00000C0024088F00F4084F00F4014B004406F
:100DF0002DE9F041264BDFF8B4E0264A264E27497C
:100E000082B04FF4807504464FF410774FF40070B1
:100E1000CEF800501F60106000230122356001A849
:100E2000FFF7DCFE0198FFF70BFF1D4B1D49E4B2F5
:100E300010204FF000420860DA6219465C63CB6A0A
:100E4000174A002BFBDA4FF000410023906BD16270
:100E500011465363CB6A124A002BFBDA124BD2F8CD
:100E600038800C4F0C4D10221A60FFF73BFF0F49E2
:100E7000074A4FF480734FF400764FF410745FFA12
:100E800088F03B602E600C60136002B0BDE8F0811A
:100E900004C004400CC004401CB0044000093D00E4
:100EA00000C0024088F00F4084F00F4014B00440AE
:100EB00038B54220FFF79CFF04464320FFF798FF18
:100EC00005464420FFF794FF44EA052400F07F0024
:100ED00044EA004038BD00BFF0B5144B144A154C2D
:100EE000154E164983B04FF480704FF400774FF4DD
:100EF00010751F601060002301223060256001A87A
:100F0000FFF76CFE0198FFF79BFE0D4B0D49102477
:100F10004FF000403C220C60D86219465A63CB6AFD
:100F2000074A002BFBDA936B03B0F0BD0CC0044002
:100F30001CB0044004C0044014B0044000093D004B
:100F400000C0024088F00F4008B501218420FFF75F
:100F5000F1FE01218420FFF7EDFE02218420BDE88F
:100F60000840FFF7E7BE00BF2DE9F843124C00250B
:100F70002570F1B1F0B188460746DFF840900AE0ED
:100F80002678731C237012F0B7FA09F806000025C2
:100F90002078B8420ED012F09FFA0028F0DC01351C
:100FA0000120EDB211F062FFA845F1D12078BDE833
:100FB000F8830846BDE8F883E226FF1FE825FF1FF7
:100FC000F8B50D4607460A2164201446FFF7CCFF0A
:100FD00000231A4656211A481A4E13F06DFD0023BD
:100FE0001A463178164813F067FD00231A46394631
:100FF000134813F061FD00231A462978104813F0B6
:101000005BFD002369780E481A4613F055FD204613
:10101000C821FFF7A9FF844201D00020F8BD0A4B88
:101020001A78762AF9D1327859789142F5D19A789E
:10103000BA42F2D1D878B0FA80F04009F8BD00BFCA
:101040005C2BFF1F9526FF1FE825FF1F38B50A21DF
:1010500005466420FFF788FF00231A4656211748EB
:10106000174C13F029FD00231A462178134813F07A
:1010700023FD00231A462621104813F01DFD0023EE
:1010800029780E481A4613F017FDC8210520FFF7EE
:101090006BFF052801D0002038BD0A4B1A78762A4C
:1010A000F9D1227859789142F5D19A78262AF2D14D
:1010B000D878B0FA80F0400938BD00BF5C2BFF1F24
:1010C0009526FF1FE825FF1F70B51F4B1F4E1868A0
:1010D00082B00A2101906420FFF746FF00231A46E0
:1010E00056211B4813F0E8FC00231A4631781848B3
:1010F00013F0E2FC00231A462421154813F0DCFC0F
:1011000001AC02AD002314F8011B11481A4613F07C
:10111000D3FCAC42F6D1C8210520FFF725FF0528F6
:1011200002D0002002B070BD0A4B1A78762AF8D19E
:10113000327859789142F4D19A78242AF1D1D8782A
:10114000B0FA80F04009EDE7FCEA01009526FF1FA8
:101150005C2BFF1FE825FF1FF0B583B0002404229D
:1011600001238DF8050005250A2119276420214E49
:1011700000948DF804708DF800508DF801208DF8E2
:101180000230FFF7F1FE2346224656211A4813F09B
:1011900093FC234622463178174813F08DFC2346F2
:1011A00022463121144813F087FC6C460DF10605E8
:1011B000002314F8011B10481A4613F07DFCA542C9
:1011C000F6D1C8210520FFF7CFFE052802D0002068
:1011D00003B0F0BD094B1A78762AF8D132785978E5
:1011E0009142F4D19A78312AF1D1D878B0FA80F0CE
:1011F0004009EDE79526FF1F5C2BFF1FE825FF1F29
:1012000010B582B002A900230122064CADF80430CB
:10121000362001F8042D05222380FFF7D1FE02B00D
:1012200010BD00BFE426FF1F2DE9F04F604C85B0D4
:1012300082469046A1460F465E4B5F494FF40072CE
:101240001A60A3F57F634FF480724FF410701A6038
:101250000A6000230122C1F8F00F584903A8FFF7E4
:10126000BDFC0398FFF7ECFC554910204FF00042FD
:101270003C230860E2626363E36A002BFCDA002629
:10128000D9F83830D8F80030DFF850B131469942FB
:101290004FF0FF051CD29BF80030012B6ED04FF0B1
:1012A00000420023E2626363E36A002BFCDAD9F8B0
:1012B0003830DBB2002E43D00AF801300131142956
:1012C0004CD0D92B20D01D46D8F800309942E2D31B
:1012D0003C4B10221A60FFF705FD3649364A4FF4A1
:1012E00080730B60A1F57F614FF4007008604FF4CC
:1012F00010711160C2F8F03FFFB1334B1B78012B26
:1013000052D0FFF77DFF97E7FF2DDCD12D4B0191E8
:1013100010221A60274C2D4DFFF7E4FC4FF4807328
:1013200025482B4A23604FF400764FF4107401993E
:101330002E6004601360C8F8001005B0BDE8F08F9F
:10134000D82BBCD1FF2DBAD1FF21D8228AF80010AA
:101350008AF80120012602211D46B5E7002FB0D1F1
:101360001C4A1278002AACD01B49019364220AF16E
:10137000140010F0F5FD7821019BA2E7114B0D4EF2
:10138000124C10221A60FFF7ADFC0B49104A4FF4C3
:1013900080734FF400754FF410703360256008605F
:1013A000136005B0BDE8F08FFFF7CEFD44E700BF46
:1013B00000C002400CC0044014B0044000093D00CD
:1013C00088F00F4084F00F40F41EFF1F1CB0044053
:1013D00004C004409626FF1F441C02002C1EFF1F61
:1013E00010B582B001240023092201A934208DF810
:1013F00004408DF80530FFF7E3FD50B1064B5879F6
:101400009979DA791B7A41EA002042EA002043EA1E
:10141000002002B010BD00BFE825FF1F2DE9F041FC
:101420002B4EDFF8B880318884B000240D120746B7
:101430000C2001940094234622468DF805508DF827
:1014400006100A2556218DF80000224802948DF8D6
:1014500002508DF80C508DF80A7013F02DFB2346C6
:10146000224698F800101B4813F026FB234622461C
:101470003221184813F020FB6C460DF10D050023B6
:1014800014F8011B13481A4613F016FBA542F6D1B7
:10149000C8210520FFF768FD052803D0002004B00F
:1014A000BDE8F0810C4B1A78762AF7D198F8002025
:1014B00059789142F2D19A78322AEFD1DB78002B19
:1014C000ECD1338801201F44378004B0BDE8F0819F
:1014D000E426FF1F5C2BFF1FE825FF1F9526FF1F3B
:1014E00000B583B0FFF738FE02A8002300F8043DE2
:1014F000FFF7ACFD4FF4967011F0B8FC43F2D40046
:1015000011F004FD0F2011F0B1FCFFF7DDFD41F2F9
:10151000470011F0FBFC0F2011F0A8FC03B05DF8B0
:1015200004FB00BFF0B5802183B0234809F0B4FE6E
:1015300020B1224B01221A7003B0F0BD04462048AE
:1015400009F036FF1D4B1E491C70684609F048FF24
:101550000A20BDF90060BDF9027011F087FC05207A
:1015600011F016FC0A240125052011F011FC0028B9
:101570004FF00A0008BF002511F078FC013CF3D1C0
:10158000104B1B786BB92346B34210D0BC4201D03C
:10159000002DD1D00C4A137823F00803137003B048
:1015A000F0BD4FF4A073B3424FF0F004EED1BC4253
:1015B000F0D1002DC0D1EDE7C426FF1FB826FF1FD4
:1015C000301EFF1F9626FF1F1108FF1F08B5074B8F
:1015D0001B783BB1064809F029FE10B1054B0122EA
:1015E0001A7008BD04480AF009F9F6E7B826FF1F8B
:1015F000C426FF1FD825FF1F301EFF1F2DE9F04115
:101600002A4D2B7886B0002B39D1294B1B78002B23
:1016100035D1284E3378002B31D1274B1B7873BB43
:10162000264B1B785BBBDFF8A080D8F80030049312
:101630000A20049F11F01AFCD8F80020204B0592D4
:10164000059C1B78E41B43B924E0B4F57A7F08DCE1
:10165000D8F800300393039CE41BFFF7B7FF002882
:10166000F3D1D8F800300193019BDB1BB3F57A7FEF
:1016700016DB144B1B78012B01D00123337006B00D
:10168000BDE8F081B4F57A7FEBDCD8F80030029346
:10169000029CE41B052011F07BFB0028E1D1F1E75F
:1016A00001232B7006B0BDE8F08100BF2C1EFF1F88
:1016B000E026FF1F8D20FF1F001EFF1F0C1EFF1FB7
:1016C000B826FF1FB226FF1FC429FF1F10B4134BFB
:1016D000134A1B78146840EA034040F00063114647
:1016E0005363104602E013F0F00F14D1CB6A0C4A9A
:1016F00013F0805FF7D04FF08053D3621460D36A49
:1017000013F0F00F04D0936BD36A13F0F00FFAD1FB
:101710005DF8044B7047836BE8E700BFC828FF1FE4
:1017200000C0024010B4134B134A1B78146840EAFF
:10173000034040F0006311465363104602E013F08B
:10174000F00F14D1CB6A0C4A13F0805FF7D04FF042
:101750008053D3621460D36A13F0F00F04D0936BFC
:10176000D36A13F0F00FFAD15DF8044B7047836B26
:10177000E8E700BF1E1EFF1F00C0024010B4134B5D
:10178000134A1B78146840EA034040F0C0531146E6
:101790005363104602E013F0F00F14D1CB6A0C4AE9
:1017A00013F0805FF7D04FF08053D3621460D36A98
:1017B00013F0F00F04D0936BD36A13F0F00FFAD14B
:1017C0005DF8044B7047836BE8E700BF1E1EFF1FE8
:1017D00000C00240F0B4324C324F2678360446F056
:1017E000004444F02A047C63FC6A04F4704514F05D
:1017F000F00F18BFBC6BB5F5405FF5D82A4C294FE8
:1018000025782D04284340F010407863F86A00F4EE
:10181000704410F0F00F18BFB86BB4F5405FF5D806
:101820002A43204C42F010426263E26A02F47040A4
:1018300012F0F00F18BFA26BB0F5405FF5D846F07C
:101840000046184C46F02B066663E26A02F47040CC
:1018500012F0F00F18BFA26BB0F5405FF5D8294326
:10186000104841F010414163C26A02F4704112F025
:10187000F00F18BF826BB1F5405FF5D82B430949D3
:1018800043F010434B63CB6A03F4704213F0F00F44
:1018900018BF8B6BB2F5405FF5D8F0BC704700BF46
:1018A000C828FF1F00C002401E1EFF1F38B50D468E
:1018B00004464FF03840FFF7C3F9A2B2ABB2194665
:1018C0001046FFF787FF0F4B0F4A1B781B0443F0AE
:1018D000004343F02C035363D36A03F4704113F0C5
:1018E000F00F18BF936BB1F5405FF5D8074A084B6E
:1018F00010781B7843EA0020FFF740FFFFF7F2F96A
:1019000038BD00BFC828FF1F00C00240B326FF1F1C
:10191000B926FF1F8318B3F5A07F70B5C8BFC0F507
:10192000A07504464FF03840D8BF15460E46FFF765
:1019300087F9A0B2421EB3B22A44194692B2FFF709
:1019400049FF1B4B1B491B781B0443F0004343F02A
:101950002C034B63CB6A03F4704213F0F00F18BFF3
:101960008B6BB2F5405FF5D81349144A144B1278CB
:1019700008781B780F4C42EA00202A4640EA0343CD
:10198000012A43F010450DDD6563E36A03F47041FD
:1019900013F0F00F18BFA36BB1F5405FF5D8013A13
:1019A000012AF1DCFFF7EAFEFFF79CF970BD00BFEA
:1019B000C828FF1F00C00240B326FF1FB926FF1F23
:1019C0001E1EFF1F8B1870B5F02B0C4606464FF0FD
:1019D0003840CCBFC1F1F0051546FFF731F9A1B28F
:1019E0004B1EB2B22B449BB21046FFF7F3FE1B4BCB
:1019F0001B491B781B0443F0004343F02C034B634B
:101A0000CB6A03F4704213F0F00F18BF8B6BB2F582
:101A1000405FF5D81349144A144B127808781B78A4
:101A20000F4C42EA00202A4640EA0343012A43F0D1
:101A300010450DDD6563E36A03F4704113F0F00FA8
:101A400018BFA36BB1F5405FF5D8013A012AF1DC6C
:101A5000FFF794FEFFF746F970BD00BFC828FF1FCF
:101A600000C00240B326FF1FB926FF1F1E1EFF1F26
:101A7000214B70B54FF038401C68FFF7E1F80021AA
:101A80000846EF2340F23F12FFF7A4FE1B4B1C4910
:101A90001B781B0443F0004343F02C034B63CB6AD9
:101AA00003F4704213F0F00F18BF8B6BB2F5405F78
:101AB000F5D8144B12491D7804F5153620462D042F
:101AC00006F2FE3430F8023B2B4343F010434B63E5
:101AD000CB6A03F4704213F0F00F18BF8B6BB2F5B2
:101AE000405FF5D88442EDD1B6F8FE03FFF746FE1D
:101AF000FFF7F8F870BD00BF041EFF1FC828FF1FC6
:101B000000C002401E1EFF1F70B505464FF0384052
:101B10000E46FFF795F889494FF6FF73CA6A013BF5
:101B200012F4704F9BB201D0002BF7D1834B4FF0D2
:101B30000042DA621A464FF6FF73D16A013B002970
:101B40009BB201DB002BF8D17C4BDC6AC4F303149D
:101B5000002C35D17A4B794A18787A49000440F044
:101B6000004343F0D90353630B78284310361D0418
:101B700040F000402E435663114650634FF6FF730A
:101B80005563CA6A013B12F4704F9BB201D0002B1F
:101B9000F7D16A4B4FF00042DA621A464FF6FF73F4
:101BA000D16A013B00299BB201DB002BF8D1634BCA
:101BB000DA6A12F0F00F5ED1FFF794F8204670BD9C
:101BC0009C6BDA6A12F0F00FE4B2C3D09C6BDA6A55
:101BD00012F0F00FE4B2BDD09C6BDA6A12F0F00F95
:101BE000E4B2B7D09C6BDA6A12F0F00FE4B2B1D075
:101BF0009C6BDA6A12F0F00FE4B2ABD09C6BDA6A3D
:101C000012F0F00FE4B2A5D09C6BDA6A12F0F00F7C
:101C1000E4B29FD09C6BDA6A12F0F00FE4B299D074
:101C20009C6BDB6A13F0F00FE4B293D0434B9C6BD8
:101C3000DA6A12F0F00FE4B28CD09C6BDA6A12F020
:101C4000F00FE4B286D09C6BDA6A12F0F00FE4B2C7
:101C500080D09C6BDA6A12F0F00FE4B23FF47AAFF6
:101C60009C6BDA6A12F0F00FE4B23FF473AF9C6B36
:101C7000DB6AE4B26EE79C6BDA6A12F0F00FE4B252
:101C80009AD09C6BDA6A12F0F00FE4B294D09C6B9D
:101C9000DA6A12F0F00FE4B28ED09C6BDA6A12F0BE
:101CA000F00FE4B288D09C6BDA6A12F0F00FE4B265
:101CB00082D09C6BDA6A12F0F00FE4B23FF47CAF92
:101CC0009C6BDA6A12F0F00FE4B23FF475AF9C6BD4
:101CD000DA6A12F0F00FE4B23FF46EAF9C6BDB6A8D
:101CE00013F0F00FE4B23FF467AF144B9C6BDA6A69
:101CF00012F0F00FE4B23FF45FAF9C6BDA6A12F0BF
:101D0000F00FE4B23FF458AF9C6BDA6A12F0F00FB8
:101D1000E4B23FF451AF9C6BDA6A12F0F00FE4B218
:101D20003FF44AAF9C6BDA6A12F0F00FE4B23FF472
:101D300043AF9C6BDB6AE4B23EE700BF00C00240E9
:101D4000C828FF1F1E1EFF1F10B504464FF0384065
:101D5000FEF776FF204B214A1B781B0443F000431B
:101D600043F036035363D36A03F4704113F0F00F6A
:101D700018BF936BB1F5405FF5D804F00300184B22
:101D8000022818701ED003280AD0012811D048203C
:101D9000FFF7C8FC134B01221A70FEF7A3FF10BD1A
:101DA000E820FFF7BFFC0F4B00221A70FEF79AFFE6
:101DB00010BD2820FFF7B6FC0A4B00221A70FEF770
:101DC00091FF10BD8820FFF7ADFC064B01221A7071
:101DD000FEF788FF10BD00BFC828FF1F00C00240EB
:101DE000CC25FF1FE41EFF1FF8B515200FF008FDDE
:101DF000344D354E287006200FF002FD2B7800215F
:101E000003430F203370FFF77FFE04464FF0384046
:101E1000FEF716FF042796F800E02D782B482C4992
:101E20007E1E4FEA0E4E2D04F6B277B3437843EA96
:101E30000E0343F000434B63871CCB6A03F47042EC
:101E400013F0F00F18BF8B6BB2F5405FF5D8B31CE1
:101E500000EB030C3846604511D010F8013B2B43D2
:101E600043F000434B63CB6A03F4704213F0F00F6E
:101E700018BF8B6BB2F5405FF5D86045EDD1B8194E
:101E8000BF5D7E1EF6B2002FD0D11120FFF71EFCE1
:101E9000FEF728FF782010F0E9FF4FF03840FEF7FA
:101EA000CFFE2920FFF712FCFEF71CFF094A0A4B60
:101EB00017602D201F70FFF747FF084B20461F704B
:101EC000F8BD00BF1E1EFF1FC828FF1FC06602000E
:101ED00000C00240DC1EFF1F0E1EFF1FE626FF1F74
:101EE0002DE9F0411A4C2678012E82B005460C46A9
:101EF0001746984609D0174B1B788BB1164A174BDB
:101F000015801C8002B0BDE8F081C2F1EF031C46D1
:101F1000104B1B7847460D46C0F1EF08002BEDD162
:101F200001220F4901A8FEF759FE0198FEF788FE2D
:101F30001FFA88F3BAB2A1B2A8B2FFF74BFC2C206B
:101F4000FFF7C4FBFEF7CEFE02B0BDE8F08100BF94
:101F5000E41EFF1FE626FF1F5026FF1F5226FF1F0D
:101F600080C3C901074B197831B10021084640F2FE
:101F70003F13EF22FFF7B4BFEF2340F23F120846B2
:101F8000FFF7AEBFE41EFF1F1E4B1B7843B31E4B73
:101F90001B78012B10D01D4B1D4A1B88128803EBA8
:101FA000830302EB4313B3F5964F04DA194A126820
:101FB00022F8130070477047174B1B78002BEAD0AC
:101FC000124B134A1B88128803EB830302EB831323
:101FD000B3F5963FEFDA114A126822F81300704702
:101FE00010B582B001220E49044601A8FEF7F6FDA5
:101FF0000198FEF725FEA0B2FFF7C0FBFEF772FEC8
:1020000002B010BDE626FF1FF41EFF1F5226FF1F61
:102010005026FF1FFC1DFF1F5C1EFF1F041EFF1F1D
:1020200080C3C9012DE9F04F4E4C277883B091460B
:102030001E4605460C46DFB14B4B1B78002B4FD19B
:1020400004EBD47406EBD6766410761005EBD575E8
:1020500009EBD979B4424FEA65054FEA690945D0E1
:102060004D4509D14FF0FF33C9EB0507019309E056
:1020700099425FD0904267D04D45F3DA0123C5EB1A
:1020800009070193A642CBBFC4EB0608C6EB0408C0
:1020900001234FF0FF33B84500932CD94FEA58097C
:1020A000DFF8CCB0DFF8CCA0C9F100092346214607
:1020B0002A462846FFF714FF9AF800309BF80000E4
:1020C00043EA0020FFF760FF009BB4421C440FD09E
:1020D00019EB0709EAD4019BC8EB09091D44E5E7A0
:1020E000224B1B78002BABD0B442B9D12646B7E7C0
:1020F00003B0BDE8F08F7E08DFF874B0DFF874A09D
:1021000076422A46284623462146FFF7E9FE9AF8FA
:1021100000309BF8000043EA0020FFF735FF019BE9
:102120004D451D44E4D016EB0806EAD4009BF61B8F
:102130001C44E6E7B5F5A07F01DAEF2C0DDD03B016
:10214000BDE8F04FFFF70EBFB5F5A07FF7DAEF2C33
:10215000F5DC321BFFF736FCF1E7C5EB0902FFF7B0
:10216000D9FBECE7E626FF1FF41EFF1F5C1EFF1FD6
:10217000B326FF1FB926FF1FF8B505464FF03840BC
:10218000FEF75EFD0021EF2340F23F120846FFF705
:1021900021FB1A4B1A4A1B781B0443F0004343F0FF
:1021A0002C0353631346DA6A02F4704112F0F00F05
:1021B00018BF9A6BB1F5405FF5D8124E104CADB216
:1021C000F027307845EA004040F0104040F23F11DF
:1021D0006063E36A03F4704213F0F00F18BFA36B5F
:1021E000B2F5405FF5D80139F2D12846FFF7C6FABB
:1021F000013FE6D1FEF776FDF8BD00BFC828FF1FFE
:1022000000C002401E1EFF1F2DE9F041904282B027
:1022100004460F4601DD144602469F4202DD394660
:102220001F460B46B4F5A07F5EDAEF2F5CDCB2F5FB
:10223000A07FD4BF161BC4F5A076F02BD8BFDD1B42
:102240004FF001024FF00003294901A8C8BFC7F1B0
:10225000F005FEF7C3FC0198FEF7F2FCB9B2A0B29C
:102260004B1E421E2B4432449BB292B2FFF7B2FA8D
:10227000204B21491B781B0443F0004343F02C03FF
:102280004B63CB6A03F4704213F0F00F18BF8B6BF3
:10229000B2F5405FF5D8194A194B17781B78002D15
:1022A00043EA07271EDD144C1FFA87F8012E14DDC0
:1022B000144B187847EA004040F010403146606304
:1022C000E36A03F4704213F0F00F18BFA36BB2F58A
:1022D000405FF5D801390129F1D14046FFF74EFAA8
:1022E000013DE3D1FEF7FEFC02B0BDE8F08100BF86
:1022F00080C3C901C828FF1F00C00240B326FF1FCA
:10230000B926FF1F1E1EFF1F2DE9F04F904283B01C
:10231000054616460C461F4601DD15460646BC42DC
:1023200002DD23463C461F46C5EB0608B8F1040F04
:1023300039DDC4EB0709B9F1040F34DD05F1010AF9
:10234000BAF5A07F04F1010330D306F1FF3BBBF5E2
:10235000A07F32D305F1020ABAF5A07F05DAEF2C8F
:10236000A8F1040846DDEF2F3EDDB5F5A07F04F1AE
:102370000204A9F1040911DAEF2C14DC28464A46BC
:102380002146FFF71FFBB6F5A07F0CDA4A4621462F
:10239000304603B0BDE8F04FFFF714BBB6F5A07FA1
:1023A00001DAEF2CF2DD03B0BDE8F08FEF2B2CD972
:1023B00006F1FF3BBBF5A07F2ED2EF2B20D9BAF55B
:1023C000A07F07F1FF330CD2EF2BC3D8194650463C
:1023D0000193FFF76BFA019B19465846FFF766FA1F
:1023E000B8E7EF2BB6D8F7E7424639465046FFF735
:1023F00091FABAE7424621465046FFF78BFAB2E718
:1024000019465846FFF752FAD9E719465046019344
:10241000FFF74CFA019BCBE7791EEF299AD850467B
:10242000FFF744FA96E700BF2DE9F04F904285B0E0
:1024300006460F469B4601DD164602465F4502DD15
:1024400039465F468B46951B042D34DDC7EB0B08E0
:10245000B8F1040F2FDD7B1C00930BF1FF330193C8
:10246000AB1E02932B1F4FEA680806F1020A06F121
:102470000109002403930CBBBAF5A07F04DAEF2F07
:102480001FDDBBF1EF0F24DDB9F5A07F05DA009B5E
:10249000EF2B34DD019BEF2B2BDD0224B6F5A07F63
:1024A00006DA3919EF291FDDC4EB0B01EF2916DD20
:1024B00001344445DFDD05B0BDE8F08F012CE3D0E9
:1024C000ECE7039A39465046FFF724FABBF1EF0FC9
:1024D000DADC039A59465046FFF71CFAD4E72A463D
:1024E0003046FFF717FAE3E72A463046FFF712FABD
:1024F000DAE71946029A4846FFF70CFACDE7029A46
:1025000019464846FFF706FAC4E700BF2DE9F04F29
:10251000834B8BB01B7809900391924693B1814B0A
:102520001B78002B40F0F680099B03EBD371039BD3
:1025300003EBD37249100AEBDA735210099103923C
:102540004FEA630A039FDDF82480774C774D07EB51
:102550000A094FEA4A0649464B46424640467642F9
:102560000896FFF7BDFC2B782078CAEB070243EAF8
:1025700000203E4607921746FFF706FD42463946C1
:1025800010463B46FFF7ACFC2B78207808EB0A0B93
:1025900043EA0020FFF7F8FC5A46584633463146D6
:1025A000FFF79EFC2B782078CAEB08010F4643EA20
:1025B00000200691FFF7E8FC3A463846334631469C
:1025C000FFF78EFC2B78207843EA0020CAF1010344
:1025D0000193FFF7D9FCBAF1000F40F39680012771
:1025E000CDF80890099904977E0001EB0709C6EB26
:1025F00009030093039B03EB0708C6EB080306F1EE
:10260000010E019E0593002E4A46484607F1010738
:1026100013DB089B02331E440893039B01960AF1C7
:10262000FF3A03EB0A06CAEB030302960793019EE7
:10263000CAEB010301EB0A0B0693029976440B46A1
:102640000196FFF74DFC2B78207843EA0020FFF736
:102650009BFC029900980B460246FFF741FC2B7841
:10266000207843EA0020FFF78FFC079E4A46314658
:1026700033464846FFF734FC2B78207843EA0020A5
:10268000FFF782FC009A314610463346FFF728FCDC
:102690002B78207843EA0020FFF776FC414643463A
:1026A0005A465846FFF71CFC2B78207843EA002056
:1026B000FFF76AFC069E4146434632463046FFF726
:1026C0000FFC2B78207843EA0020FFF75DFCDDF853
:1026D00014805A46414643465846FFF701FC2B7882
:1026E000207843EA0020FFF74FFC4346324641463C
:1026F0003046FFF7F5FB2B78207843EA0020FFF700
:1027000043FC049B9A453FF76DAF0BB0BDE8F04F1B
:10271000FFF728BC064B1B78002B7FF413AF03E7B1
:10272000E626FF1FF41EFF1FB326FF1FB926FF1F5B
:102730005C1EFF1F2DE9F04FDFF8A0928BB099F8D7
:10274000003003910546029273B1944B1B78002B25
:1027500040F01E81039B03EBD372029B03EBD37308
:1027600052105B10039202938D4B1A78002A5ED1AF
:102770008C4BDFF860A21C78002C00F033819AF8B3
:1027800004109AF805009AF80640CB0813FB00F0F5
:102790002C1B00FB04F404340094002842D0DFF822
:1027A0004092DFF82C8201920398019AB2FBF3F376
:1027B0000A1802990B441946013AFFF791FB9AF85F
:1027C0000410CB085D1E0BB3774F784EDAF800305B
:1027D0005A19009BD45C4FF0000B44FA0BF3D90755
:1027E00047BF98F80000337899F800003B780BF168
:1027F000010B43EA0020FFF7C7FBBBF1080FECD148
:1028000015F1FF35E2D29AF80410CB0801989AF836
:102810000520009C184403FB02F21C4482420190F4
:102820000094C1D80BB0BDE8F04FFFF79BBBDFF8B9
:10283000A4A19AF804309AF805109AF80600DB086B
:1028400003FB01F22D1A02FB05F52A1D0592002952
:10285000E8D0029ACDF818A002F1010B03F0FF02B4
:10286000002B00F08980039B0093C3F1EE030193DA
:1028700000230BF1FF3A0493069B059A1B68019F06
:10288000009D1344049A072413F8028013E099F87A
:1028900000005B4632465146D8B1454B454A198047
:1028A000158048FA04F3DA0746D4013C631C354628
:1028B00007F1FF374ED03B4B1B78012B05F101068A
:1028C000E5D199F800007B1C5A4639465546002848
:1028D000E3D14FF03840099208910793FEF7B0F921
:1028E000079B099A08999BB292B289B2A8B2FEF7E7
:1028F00071FF2C20FEF7EAFE2F4B1B78002BD0D067
:10290000DA0703D52D492E4A096811609D0703D5C2
:102910002A4A2C4952680A60580703D5274A2A498F
:1029200092680A601907BCD5244B284ADB681360FB
:1029300048FA04F3DA07B8D5254A1C4B10781B78FF
:10294000013C43EA0020FFF71FFB631C354607F1FB
:10295000FF37B0D1069B009C049A1B791D490834AF
:102960000132DB080094019C04921046DAB2083C64
:102970008242019480DC49790298059CC0EB0B00EF
:102980001444814205940BF1010B3FF667AF49E710
:10299000114B1B78002B7FF4E7AEDBE6F41EFF1F24
:1029A0000E1EFF1FE41EFF1FC425FF1FB926FF1FB9
:1029B0005226FF1F5026FF1F9829FF1F8829FF1F3F
:1029C00000E100E004E100E008E100E00CE100E0EB
:1029D000B326FF1FDC1EFF1F5C1EFF1FE626FF1F26
:1029E0001E25FF1F9AF805309AF8042002990398D3
:1029F0000B440244013B013AFFF772FA9AF80420B3
:102A00009AF805309AF80690D20812FB03F3C9EB46
:102A1000050903FB09F909F10409002B3FF402AF92
:102A2000DFF86880164F174E174D0094DAF8003023
:102A300013F809404FF0070B44FA0BF2D00747BFD9
:102A400030782A7898F800003A7842EA0020FFF7B8
:102A50009BFA1BF1FF3BEFD29AF8042000999AF8F9
:102A60000530D208013112FB03F38B42009109F1CA
:102A70000109DBD80BB0BDE8F04FFFF773BA00BF18
:102A8000C425FF1FB326FF1FB926FF1F1E25FF1FEA
:102A9000174BF0B41B6804331A780A705C784C60EA
:102AA0009E788E60DD78CD601C797F2CC8BFC4F520
:102AB00080740C619F1D82425B794B610BD0FF2AB1
:102AC00012D016FB05F56EB16B1E48BFAB1D07EBB0
:102AD000E3030133E0E7B2F1FF0018BF01208F618B
:102AE000F0BC70473B46D7E700208F61F0BC7047D1
:102AF000DC1EFF1F2DE9F04F8BB08B4603A901921E
:102B0000FFF7C6FF00284FD0354C364D364B2178A5
:102B10002A781B7842EA01220092002B47D0059BBD
:102B2000002B40D0069A002A3DDD4FF00008099F97
:102B3000C14646468025002B2EDD019A00210C4619
:102B400002EB080A09E02A4616424FEA550510D161
:102B50000134E4B29C4221461DDA03FB08125207FD
:102B6000F1D13E78802216424FF0400507F101076F
:102B7000EED0079A049B5A440A445344194610461F
:102B8000FFF7AEF90098FFF7FFF90134059BE4B2B7
:102B90009C422146E1DB069A09F101095FFA89F9B5
:102BA0009145C846C7DB08980BB0BDE8F08F0F49C8
:102BB0000F4B0978089A5B790E48217001990678C5
:102BC0002E705A440B4401325846FFF71DFB009A01
:102BD0002A70130A2370059B002BA3D1E3E700BFE3
:102BE000B326FF1FB926FF1F0E1EFF1F1E25FF1F46
:102BF000DC1EFF1FC425FF1F2DE9F04F2DED068BB6
:102C00008BB009EE101A03A9994609EE902AFFF736
:102C10003FFF002879D0059A002A73D0DDED1A7A9B
:102C20009FED4E7A0192F8EEE77A67EE877A17EE1B
:102C3000900A16F015FC41EC100B41EC1A0B14F045
:102C400043FF51EC100B16F037FFB0EE4A0AF0EEDE
:102C50006A0A08EE100A14F097FF51EC100B16F0F8
:102C60002BFF069B002B08EE900A4BDD3C483D49AC
:102C700090F800B00978DDF82480DFF8F4A0019A1C
:102C8000002541EA0B2B2F468026002A37DDF8EE7F
:102C9000C9AAB8EEE9AA002425E031467608049BCB
:102CA000EB1806EE903A04EB090307EE903AF8EEC3
:102CB000E66AB8EEE76A66EEE87A28EE867AE8EE2B
:102CC000067A0F42A8EE267A77EEAA7A37EE0A7ACB
:102CD000FDEEE77ABDEEC77A1CD19AF8003043B317
:102CE000013494420ADA02FB05435B07D5D198F818
:102CF0000070402608F101088021D0E7069B0135CD
:102D00009D42C2DBFFF72EF908980BB0BDEC068B95
:102D1000BDE8F08F17EE902A17EE900A17EE103AE2
:102D200017EE101AFFF7DCF85846FFF72DF9059A51
:102D3000D6E717EE103A17EE902A17EE900A17EE24
:102D4000101AFFF7CDF8084B1878084B1B7843EAA8
:102D50000020FFF719F9059AC2E700BF295C8F3CF4
:102D6000B326FF1FB926FF1F1E25FF1FC425FF1F07
:102D70000E1EFF1F2DE9F04F2DED028B93B0DDED00
:102D80001E7A9FED597ADFF878B11192F8EEE77A62
:102D9000044667EE877A0C9317EE900A109116F0AE
:102DA0005FFB9BF8046041EC180B9BF806009BF856
:102DB0000510F30803FB01F2201A02FB00F0021DCC
:102DC0000E92002900F09E8100220F92344603F0FB
:102DD000FF02002B00F08C81109816F02FFBB0EE54
:102DE000480AF0EE680ACDE9000114F06DFE0F9874
:102DF00059EC108B8DED020B16F020FBB0EE480A5B
:102E0000F0EE680A06460F4614F0BEFE304653EC5C
:102E1000102B39468DED040B16F076FBCDE906013B
:102E2000119816F00BFB3B46CDE9080132464046AF
:102E3000494616F069FBCDE90A0100230D930E9A6D
:102E4000DBF8003013440D9AD70013F802A00737BF
:102E5000072520460C9A7B1B02FB003016F0EEFA89
:102E6000DDE902238046894616F04EFBDDE90623A4
:102E700016F096F9DDE9002316F094F916F0F4FD4A
:102E8000DDE9042304464946404616F03DFBDDE9F2
:102E90000A2316F087F9DDE9082316F083F916F006
:102EA000E3FD124B1978012900F1010304F101023D
:102EB00028D00F49097800292FD00E4A0E494AFA26
:102EC00005F3A4B280B2DE071480088000F12181EE
:102ED0000A4B1B78002B00F0338115F1FF35C0F051
:102EE000FA809BF80400B5E7295C8F3CE41EFF1FC5
:102EF000E626FF1F5026FF1F5226FF1F0E1EFF1F34
:102F0000DC1EFF1FC2F1EF011A46C4F1EF030446B5
:102F10000846A04909780029CFD19F49097800299E
:102F20003CD072B69C490978CE070FD5DFF88CC229
:102F3000DFF88CE2DCF80090DEF800E0DFF8608279
:102F400009EA0E0EC8F800E0CCF800E08E070FD5B5
:102F5000DFF870C2DFF868E2DCF80090DEF804E029
:102F6000DFF83C8209EA0E0ECCF800E0C8F804E075
:102F70004E070FD5DFF850C2DFF844E2DCF80090CE
:102F8000DEF808E0DFF8188209EA0E0ECCF800E05F
:102F9000C8F808E00E0700F1708162B67F49D1F8E9
:102FA0000CE0BEF1384F0FD0DFF824C2C1F800C0EA
:102FB0004FF0384CC1F80CC0DFF818E24FF0784CF5
:102FC000C1F810C0C1F800E09BB292B281B2A0B2C9
:102FD000FEF700FC2C20FEF779FB6F4B1A78A2B1AC
:102FE000D40703D56E496F4B09681960900703D564
:102FF0006B4B6D495B680B60510700F1398113071A
:1030000003D5674B6949DB680B604AFA05F3D807BB
:1030100000F1F080664B1B78002B7FF45EAF654AB1
:10302000654B10781A785B4B1B7842EA0020002B26
:1030300040F07981584B1B78002B32D072B6564B3A
:103040001B78D90709D55D495D4AD1F800E01268BF
:10305000534C0EEA020222600A609A0709D55949C8
:10306000574AD1F800E052684D4C0EEA02020A605D
:1030700062605E0709D55449514AD1F800E0926870
:10308000474C0EEA02020A60A2601C0708D54F4AAC
:103090004B4B1168DB68424A0B404C490B60D360D4
:1030A00062B63E4BDA68B2F1384F09D04849196030
:1030B0004FF03841D960474A4FF0784119611A60A2
:1030C000FEF75CFB344B1B78002B40F0B78015F10A
:1030D000FF35BFF406AF0D9A9BF804403E4901321C
:1030E000E30810460D92DAB282423FF7A8AE497962
:1030F0000F980E9D0130C0B2154488420F900E9576
:10310000FFF465AE13B0BDEC028BBDE8F04FFEF7E7
:1031100029BF324A324B12781B7843EA0223314AE4
:103120001278012A00EB800024D004EB4014B4F59F
:10313000964FBFF6D2AE2C4A126822F81430CCE675
:103140001C481D4B00781B7843EA0020254B1B7858
:10315000012B00F0D4800B88128803EB830302EB71
:103160004313B3F5964FBFF6B8AE1F4A126822F864
:103170001300B2E61D4A1278002AD6D004EB801460
:10318000B4F5963FBFF6A9AE194A126822F814307A
:10319000A3E600BFE626FF1F9829FF1F00C00240DC
:1031A0008829FF1F00E100E004E100E00CE100E0FD
:1031B0000E1EFF1F1E25FF1FC425FF1F80E100E01C
:1031C0007829FF1F84E100E088E100E08CE100E065
:1031D00001401F0000001F80DC1EFF1FB326FF1FE1
:1031E000B926FF1FF41EFF1FFC1DFF1F5C1EFF1FE3
:1031F000041EFF1F5049514B087851491B7809782C
:1032000043EA0023002940F09180002A43D14D4A2F
:10321000D168B1F1384F09D04B4810604FF03840B9
:10322000D0604A494FF07840106111601846FEF7AF
:10323000A5FA474B1B78002B3FF44FAED80703D5B8
:103240004449454A09681160990703D5414A4349F1
:1032500052680A605A0703D53E4A414992680A609B
:103260001B077FF53AAE3B4B3E4ADB68136034E602
:10327000384B3B499B680B60C1E63B4E3B49DFF84E
:10328000D4E0D1F800C0F168384E0CEA0101316099
:10329000CEF80C1081E672B62D4A1278D10709D506
:1032A00033483149D0F800E009682A4C0EEA0101A0
:1032B00021600160960709D52E482B49D0F800E01F
:1032C0004968244C0EEA010101606160540709D588
:1032D00029482549D0F800E089681E4C0EEA010112
:1032E0000160A160100708D520491F4A0868D2680C
:1032F000184902401D480260CA6062B687E71F4B4A
:103300001B78002B3FF427AF0B88128803EB830355
:1033100002EB8313B3F5963FBFF6DFAD184A126890
:1033200022F81300D9E5174A17490FE71649154A3D
:1033300008881488F3E600BFB326FF1FB926FF1FD5
:10334000E626FF1F00C0024001401F0000001F8052
:103350009829FF1F8829FF1F00E100E004E100E039
:1033600008E100E00CE100E07829FF1F8CE100E0BB
:1033700080E100E084E100E088E100E05C1EFF1FE6
:10338000041EFF1F5026FF1F5226FF1F2DE9F04F7E
:1033900083B09A460D461646044617F011FD584B69
:1033A0001B7807464BB1574B1B78002B75D105EBAB
:1033B000D57506EBD6766D107610534B1B78C3BBD4
:1033C00042F20F739D4200F08D8042F20E739D42D7
:1033D0006ED0002F2ADDBAF1000F3ED04FF0000969
:1033E000DFF82C810134CB460CE014F8010CCDF849
:1033F00000A05B460BF1010BFFF7BCFC5F4504F13D
:10340000010413D098F804004B46324629460028A0
:10341000EBD114F8010CCDF800A0FFF7EDFB0BF198
:10342000010B5F45814404F10104EBD103B0BDE819
:10343000F08F42F20F739D4246D042F20E739D42CE
:10344000C7D1DFF8CC8098F8045007FB05F5C5F12B
:10345000F00505EBD5756D10BBE7DFF8B4800137DB
:103460002744C146013408E014F8010CFFF742FB81
:10347000013005440134A742D8D098F804302946D9
:103480003246002BF0D02946324614F8010CFFF7E3
:1034900051F999F804301D44ECE71C4B1B78002BC4
:1034A0008BD105EBD57506EBD6766D10761084E7DB
:1034B000DFF85C8098F8045007FB05F5C5F5A075AA
:1034C00005EBD5756D1084E7DFF8448098F804505B
:1034D00007FB05F5C5F1F00542F20E739D427FF43E
:1034E00078AFAEE7DFF8288098F8045007FB05F5C1
:1034F000C5F5A07542F20E739D427FF46AAFD7E71F
:10350000E626FF1FF41EFF1FE41EFF1F5C1EFF1FA9
:10351000DC1EFF1F2DE9F041856805F1080424F049
:10352000070400AFADEB040D16460C4698466A1C26
:103530006946002311F0C0FD4346324621466846E5
:10354000FFF724FFBD46BDE8F08100BF2DE9F0473D
:103550008EB000280E46174698469DF858101CD18C
:10356000002B6ED0012B74DD5C1E0DF11C09224670
:10357000484616F05BFF0EAB181998443022002322
:1035800000F81C2C08F81C3C3A46314648460023FB
:10359000FFF7FCFE0EB0BDE8F087B4BF01250025A3
:1035A000DFF8BCE0B8BF4042AC460DF1FF33002469
:1035B0008EFB0029C217C2EBA90202EB8202A0EB2C
:1035C0004202801A8EFB00A9C0173032D0EBA9004E
:1035D00004F1010403F8012FEAD10EAB234403F8F0
:1035E000380CBCF1000F02D02D238DF81C3004EBF9
:1035F000050AD04516DC4FF000080DF11C0905EB5B
:103600000803013B69464B446C4414F8012D03F850
:10361000012FA142F9D10EAB9844C24400230AF80D
:103620001C3CB1E7C4EB0808C5EB0808B8F1000F73
:10363000E1DD0DF11C0909EB0500424616F0F6FE2E
:10364000DDE730238DF81D808DF81C300DF11C094D
:103650009AE704464FF001080DF11C098BE700BF03
:10366000676666662DE9F04383B004460F4616464A
:103670006C49DDF828900B9D0122984601A8002393
:10368000FDF7ACFA0198FDF7DBFAB9B2A0B208F188
:10369000FF33721E0B4402449BB292B2FEF79AF8BB
:1036A000614B62491B781B0443F0004343F02C0339
:1036B0004B63CB6A03F4704213F0F00F18BF8B6BAF
:1036C000B2F5405FF5D8B8F1000F40F3A680584F2F
:1036D000564C3878042E49464FEA004054DDB64631
:1036E0000B789B0935F81330034343F010436363B1
:1036F000E36A03F4704213F0F00F18BFA36BB2F546
:10370000405FF5D80B78C3F3011335F8133003434A
:1037100043F010436363E36A03F4704213F0F00F65
:1037200018BFA36BB2F5405FF5D80B78C3F38103E4
:1037300035F81330034343F010436363E36A03F443
:10374000704213F0F00F18BFA36BB2F5405FF5D8CD
:1037500011F8013B03F0030335F81330034343F042
:1037600010436363E36A03F4704213F0F00F18BF71
:10377000A36BB2F5405FF5D8AEF1040E1FFA8EF3DD
:10378000042B0FFA83FEABD80B789B0935F8133066
:10379000034343F010436363E36A03F4704213F09E
:1037A000F00F18BFA36BB2F5405FF5D80B78C3F3E9
:1037B000011335F81330034343F010436363E36AA6
:1037C00003F4704213F0F00F18BFA36BB2F5405F23
:1037D000F5D80B78C3F3810335F81330034343F076
:1037E00010436363E36A03F4704213F0F00F18BFF1
:1037F000A36BB2F5405FF5D80B7803F0030301F13A
:10380000010935F81300FDF7B9FF08F1FF339BB24A
:103810000FFA83F8002B7FF45CAFFDF763FA03B077
:10382000BDE8F08380C3C901C828FF1F00C0024063
:103830001E1EFF1F2DE9F84304460F461646984604
:103840004FF03840DDF82090099DFDF7F9F9B9B245
:10385000A0B208F1FF33721E0B4402449BB292B235
:10386000FDF7B8FF394B3A491B781B0443F000437E
:1038700043F02C034B63CB6A03F4704213F0F00F58
:1038800018BF8B6BB2F5405FF5D8B8F1000F58DD6B
:10389000304F2F4C3878022E49464FEA00402EDD3B
:1038A000B6460B781B0935F81330034343F0104339
:1038B0006363E36A03F4704213F0F00F18BFA36B65
:1038C000B2F5405FF5D811F8013B03F00F0335F86E
:1038D0001330034343F010436363E36A03F470421D
:1038E00013F0F00F18BFA36BB2F5405FF5D8AEF13F
:1038F000020E1FFA8EF3022B0FFA83FED1D80B783B
:103900001B0935F81330034343F010436363E36A44
:1039100003F4704213F0F00F18BFA36BB2F5405FD1
:10392000F5D80B7803F00F0301F1010935F8130006
:10393000FDF724FF08F1FF339BB20FFA83F8002B49
:10394000A8D1FDF7CFF9BDE8F88300BFC828FF1F55
:1039500000C002401E1EFF1F2DE9F04107464FF038
:1039600038400C46FDF76CF90021EF2340F23F127E
:103970000846FDF72FFF594B594A1B781B0443F0AB
:10398000004343F02C0353631346DA6A02F4704198
:1039900012F0F00F18BF9A6BB1F5405FF5D8002C0C
:1039A0007CD007F517484F4D4D4C07F59E7608F132
:1039B0003C08023F95F800E038464FEA0E4E30F8DA
:1039C000021F41EA0E0141F010416163E36A03F412
:1039D000704213F0F00F18BFA36BB2F5405FF5D83B
:1039E0006163E36A03F4704213F0F00F18BFA36B36
:1039F000B2F5405FF5D88642E1D1708840EA0E0307
:103A000043F010436363E36A03F4704213F0F00F72
:103A100018BFA36BB2F5405FF5D8FDF7AFFE95F880
:103A200000E038464FEA0E4E30F8021F41EA0E0120
:103A300041F010416163E36A03F4704213F0F00F48
:103A400018BFA36BB2F5405FF5D86163E36A03F476
:103A5000704213F0F00F18BFA36BB2F5405FF5D8BA
:103A6000B042E1D1708840EA0E0343F01043636333
:103A7000E36A03F4704213F0F00F18BFA36BB2F5C2
:103A8000405FF5D806F5A076FDF778FEB04507F55E
:103A9000A0778FD1FDF726F9BDE8F081114B1049D1
:103AA000187807F51534000404F2FE3537F8023BA8
:103AB000034343F010434B63CB6A03F4704213F0AB
:103AC000F00F18BF8B6BB2F5405FF5D8AF42EDD168
:103AD000B4F8FE03FDF752FEDCE700BFC828FF1F65
:103AE00000C002401E1EFF1F2DE9F04F00F0010232
:103AF0004308960003EB830316445A0187B002EB98
:103B00000612C2F59556DFF880E15B4F01960592EB
:103B10001646C2F5155202929EF8008097F800A052
:103B2000029A564C564B94F800901C68554BC6F5BB
:103B30009547C6F5605E019E04970139009106F134
:103B40001F0100EB800501911146049AAD013F3140
:103B5000C5F595477F3200EB800B02910EF13F01D6
:103B600004926E4203914FEA4B1B7F37A03500222F
:103B70001AE0B9F1000F25D002EB0B0104EB810E26
:103B800024F8210004EB4501AEF8020024F81500EA
:103B900048800132502A03F10203A7F10207A6F17F
:103BA000020605F1020535D01879597951EA00204D
:103BB00031D0B8F1010F1DD0BAF1000FD9D1B9F150
:103BC000000FD9D002EB0B01A1F515513F3906F5D5
:103BD000944C06F5944EC1EB81710CF15F0C0EF123
:103BE0005E0E24F8170024F8210024F81C0024F8A5
:103BF0001E00CEE70099B9F1000F05D10329C8D8FE
:103C0000DFE801F035302B260329C2D8DFE801F0C8
:103C10001B140D06012007B0BDE8F08F059951185F
:103C200001F5615124F81100B3E70599511801F528
:103C3000165124F81100ACE70599511801F5965179
:103C400024F81100A5E70599511824F81100A0E700
:103C50000199891A24F811009BE70299891A24F81E
:103C6000110096E70399891A24F8110091E7049945
:103C7000891A24F811008CE7CA28FF1F9626FF1F17
:103C8000FC1DFF1F2025FF1F4D26FF1F2DE9F04FB4
:103C9000854B864D1B7883B0012B0CBF0423012379
:103CA0004FF060500193FCF7CBFF00210F200FF085
:103CB0004BF801232C4600934FF00008B8F1FF0F9A
:103CC00075D07B4F4FF0010B07F1A3064FF0000AB0
:103CD0002B683978764F4FF0004243F480632B60B5
:103CE0001046EA625FFA8AF93A466963BE4651783D
:103CF000EB6A002BFCDAA76B236843F48063236034
:103D0000E062616302F8017BB242F0D17746EB6A70
:103D1000002BFCDA3B78A26B87F8A32003F00F029C
:103D20000F2A634902D04A784A4522D00FF07AF828
:103D300008F101085FFA88F8064600E000BF0FF0BE
:103D400071F8801BB0F5487FF8D3B9F13C0FB5D1BD
:103D5000009B019A03F1010A5FFA8AF39A420093E9
:103D6000AAD2544B01221A60FCF7BCFF03B0BDE895
:103D7000F08FB9F1140F0FD000994846FFF7B4FE49
:103D80000028D3D0BBF13C0FE2D00BF1010B5FFA5E
:103D90008BFB0AF1010A9BE7434A1278012A74D08F
:103DA00000991420FFF7A0FE0028EED1BEE7424B99
:103DB0001B78DBB2012B70D03E4A404E01231360CA
:103DC0003378BBB1D80703D53D493E4A0968116035
:103DD000990703D53A493C4A496811605A0703D507
:103DE00037493A4A896811601F0703D5344A384B6E
:103DF000D2681A60BA200FF039F832782F4B002AB7
:103E00002CD072B61B78D80707D53249324A0E68D3
:103E100012682B48324002600A60990707D52F4983
:103E20002D4A0E685268264832400A6042605A079E
:103E300008D52B49284A0868926821490240284839
:103E400002608A601B0708D5264A234B1168DB688D
:103E50001B4A0B4023490B60D36062B6EB68B3F199
:103E6000605F09D0204A2A604FF06052EA601F4B21
:103E70004FF0F0422A612B6000210F200EF064FF0A
:103E8000012300934FF000081BE71B113FF44EAFD6
:103E9000009A9A427FF44AAF82E7064A1360FCF721
:103EA00021FF03B0BDE8F08F4D26FF1F00C0024088
:103EB0002025FF1F84F00F402C1EFF1F9829FF1F95
:103EC0008829FF1F00E100E004E100E008E100E0D4
:103ED0000CE100E080E100E07829FF1F84E100E0D0
:103EE00088E100E08CE100E001401F0000001F803D
:103EF00070B52149214B224C4FF480704FF4107261
:103F000008601A6004F26C4104F58C6002231422EC
:103F10000CF074FC78B91A480CF08AF92379174A26
:103F2000154C5B084FF410754FF48071256000FB51
:103F300003F0116070BD04F23C400AF027FE01213D
:103F400020460CF00FFA80B10D4D05F23C4630468C
:103F500029460AF0E7FE0028DDD095F83C3413F03E
:103F6000700F1CBF074B1E60D5E7014620460CF0C2
:103F7000F9F90028E8D1CEE714B0044004C00440A9
:103F8000AC20FF1F7029FF1F2DE9F041214F224D6A
:103F900022484FF480764FF410783E608CB0C5F81C
:103FA00000800CF0F5FF1E4B00F2FF74C4F3CF2429
:103FB0001860C7F800802E6044B3FFF799FF0A220B
:103FC000810A684610F022FF694604A810F088FEB6
:103FD000144904A811F016F80A220546611E08A823
:103FE00010F014FF08A9284610F0CCFF0E4911F07C
:103FF00009F801460D4810F04FFF08A810F044FFE3
:1040000004A810F041FF684610F03EFF0CB0BDE878
:10401000F08100BF14B0044004C004400C25FF1F11
:10402000B426FF1FFCF8010000F901005826FF1F0D
:1040300038B51D481D4B1E494FF410724FF4807463
:1040400004601A60A1F10C00022314220CF0D6FBCC
:1040500048B900201449154B4FF410744FF4807286
:104060000C601A6038BD13480AF090FD0121124817
:104070000CF078F988B1104C04F23C4528462146F2
:104080000AF050FE0028E4D094F83C3413F070039A
:1040900016BF0A4B18461D60DCE7014606480CF0C7
:1040A00061F90028E7D1D4E714B0044004C004400B
:1040B0001825FF1FE824FF1FAC20FF1F7029FF1FDA
:1040C000F0B41C4B1C4C1D481D494FF400121A60E3
:1040D0002260026822F4802202604FF000674FF0F5
:1040E00080564FF000554FF080444FF000421F6063
:1040F0001E601D601C601A600B68114A1806FBD414
:104100001368590603D5136843F0400313600D4B41
:104110001A68120603D51A6842F080021A600A482B
:104120000A490B4AA024047000230B60F0BC136002
:10413000704700BF84E100E084E200E03480044086
:1041400024B00B4000B00B400040064044800440C7
:104150004880044008B500200EF078F9AE2800D061
:1041600008BD002108460EF08BF972B6FFF7A8FFD4
:1041700048F68000C0F20300D0F800D0D0F804F078
:1041800008BD00BF38B5094D094C2888000A10F059
:10419000D9FA287810F0D6FA2088000A10F0D2FA5E
:1041A0002078BDE8384010F0CDBA00BFAE26FF1F22
:1041B000B026FF1F2DE9F041164B1B78012B17D0BD
:1041C000B0B9154E804608F5A077444633681D5BAC
:1041D000280A10F0B7FA0434E8B210F0B3FABC427F
:1041E000F4D108F52078B8F5164FECD1BDE8F08190
:1041F000094E00243368185B000A10F0A3FA3368F4
:10420000185D023410F09EFAB4F5164FF2D1BDE8F5
:10421000F08100BF4D26FF1FFC1DFF1F38B5124B5C
:104220001C7814B1114B1C7874B9114D2B68185BB4
:10423000000A10F087FA2B68185D023410F082FA39
:10424000B4F5164FF2D138BD0A4D00242B68185B27
:10425000000A10F077FA2B68185D023410F072FA39
:10426000B4F5163FF2D138BDF41EFF1F5C1EFF1FD0
:10427000FC1DFF1F041EFF1F08B5194B18780328EB
:1042800008BF002010F05EFA164B187810F05AFAAA
:10429000154B187810F056FA144B187810F052FAA3
:1042A000134B187810F04EFA124B187810F04AFAA7
:1042B000114B187810F046FA104B187810F042FAAB
:1042C0000F4B187810F03EFA0E4B187818B10E4BC1
:1042D000187880F00100BDE8084010F033BA00BF44
:1042E0004D26FF1F9626FF1F4E26FF1FC928FF1FC2
:1042F000F61EFF1FE126FF1F101EFF1FD425FF1F04
:10430000E726FF1F0D1EFF1FE61EFF1F10B50F4CF7
:1043100082B0207810F016FA237823B1002010F034
:1043200011FA02B010BD0A4B0A4A1B680193019BA7
:10433000126809489B1AA0FB03308009C0F11E00D7
:10434000C0B210F0FFF902B010BD00BFE225FF1FA0
:10435000C429FF1F9020FF1FD34D621070B5164B6C
:1043600082B01B688DF80430190A1A0C01AC1B0EC0
:104370008DF805108DF806208DF80730254602AE21
:1043800015F8010B10F0DEF9B542F9D10B4B1B68A3
:104390008DF80430190A1A0C1B0E8DF805108DF8D3
:1043A00006208DF8073014F8010B10F0CBF9B44259
:1043B000F9D102B070BD00BFD025FF1FEC1EFF1F5A
:1043C00030B50C4B83B01B688DF80430190A1A0CF9
:1043D0001B0E8DF805108DF806208DF8073001AC06
:1043E00002AD14F8010B10F0ADF9AC42F9D103B0F5
:1043F00030BD00BFF81EFF1F2DE9F041664CA2B092
:1044000023680293029D10F09DF830B9236803934E
:10441000039B5B1BB3F57A7FF5D310F093F800286C
:1044200035D006A878225D4910F0D2FB042306A9F6
:104430001AA8002210F05AFE0A2240F2E1711EA8CA
:1044400010F0E4FC1EA91AA810F020FE014616A8E0
:1044500010F09EFC12A90023052216A810F02CFED5
:1044600012A815F07FFB044616A810F00DFD1EA83B
:1044700010F00AFD1AA810F007FD74B9742010F0AE
:1044800061F906A810F000FD22B0BDE8F0817420AB
:1044900010F058F922B0BDE8F0810AA806A90D2352
:1044A0000B2210F023FE1EA90AA80023052210F0FB
:1044B00003FE1EA815F056FB06A9044610230EA8FD
:1044C0000E2210F013FE1EA90EA80023052210F0E4
:1044D000F3FD1EA815F046FB06A90546132312A8F6
:1044E000112210F003FE1EA90023052212A810F0CD
:1044F000E3FD1EA815F036FB06A906460A2316A8FA
:10450000082210F0F3FD1EA90023052216A810F0C2
:10451000D3FD1EA815F026FB06A9074607231AA8F7
:10452000052210F0E3FD1EA9002305221AA810F0B1
:10453000C3FD1EA815F016FB06A9804604231EA87D
:10454000002210F0D3FD04A9002305221EA810F0BC
:10455000B3FD04A815F006FB3B4632462946019000
:10456000CDF8008020460DF0C3FB1EA810F08CFC97
:104570001AA810F089FC16A810F086FC12A810F0FA
:1045800083FC0EA810F080FC0AA810F07DFC0DF052
:10459000E5FA0EF089FA71E7C429FF1F6C2BFF1FA3
:1045A00070B50D4CA51C04F5C07635F8020C000A58
:1045B00010F0C8F815F8020C10F0C4F86088000A72
:1045C00010F0C0F8043414F8020C10F0BBF8B44238
:1045D00005F10405E9D170BD0C1FFF1F08B50FF0F0
:1045E000B1FF002810DD0FF071FFC0B201280BD819
:1045F00078B1094B01221A700022084B82201A70F0
:10460000BDE8084010F09EB80020BDE8084010F05A
:1046100099B80122F1E700BF0D1EFF1FE61EFF1F24
:1046200008B50FF08FFF002804DD0FF04FFFC1B277
:10463000012904D90020BDE8084010F083B8064BDA
:1046400001F0010265201A700DF01AFF8520BDE807
:10465000084010F077B800BFC928FF1F08B50FF059
:1046600071FF002804DD0FF031FFC1B2012904D928
:104670000020BDE8084010F065B8064B01F00102CB
:1046800069201A700DF0FCFE8620BDE8084010F08D
:1046900059B800BFF61EFF1F08B50FF053FF0028E2
:1046A00004DD0FF013FFC1B2012904D90020BDE8D9
:1046B000084010F047B8064B01F001026A201A705A
:1046C0000DF0DEFE8720BDE8084010F03BB800BFCB
:1046D000E126FF1F08B50FF035FF002804DD0FF0BD
:1046E000F5FEC3B2032B04D90020BDE8084010F04A
:1046F00029B8054A19467F2013700DF0C1FE8820A5
:10470000BDE8084010F01EB8101EFF1F08B50FF0DE
:1047100019FF002804DD0FF0D9FEC3B2022B04D923
:104720000020BDE8084010F00DB8054A1946732076
:1047300013700DF0A5FE7A20BDE8084010F002B815
:10474000E726FF1F034B187808B1034B18780FF0CA
:10475000F9BF00BFF41EFF1F5C1EFF1F2DE9F041D3
:104760000FF0F0FEB0F5C07F24DB154D4FF6FF775C
:1047700005F5C0764FF000080FF0A8FE04460FF0D4
:10478000A5FE00EB042080B2B84214BF25F8020C4D
:1047900025F8028C0FF09AFE04460FF097FE00EB0E
:1047A000042025F8040BB542E6D18920BDE8F0418C
:1047B0000FF0C8BF0020BDE8F0410FF0C3BF00BF3D
:1047C0000E1FFF1F70B51C4D86B02B6802930A2088
:1047D000029E0EF04BFB2A68184B0192019C1B783D
:1047E000A41BFBB106E0B4F57A7F07DC2B680393CA
:1047F000039CA41BFCF7EAFE0028F4D12B68059368
:10480000059B9B1BB3F57A7F12DA0D4BB522002076
:104810001A7006B070BDB4F57A7FEFDC2B68049394
:10482000049CA41B05200EF0B3FA0028E6D1F2E7A1
:10483000012006B070BD00BFC429FF1FB826FF1FAE
:104840001008FF1FF8B599202DED028B0DF0FEFD2D
:10485000431EDBB2022B13D95749584F584E594DBE
:1048600059485A4A00234FF07C540B704FF07E5148
:104870003B7033702B7004601160BDEC028BF8BD8F
:1048800001283FD17E200DF0E1FDC828E4D17C2035
:104890000DF0DCFD484B9FED4E8A187079200DF02D
:1048A000D5FD474B18707A200DF0D0FD454B1870A0
:1048B0007B200DF0CBFD414B18707D200DF0C6FD27
:1048C00007EE900AB8EEE77A3F4BC7EE087AA520CC
:1048D000C3ED007A0DF0BAFD07EE900AB8EEE77A64
:1048E0003A4BC7EE087A9FED3B7AC3ED007AF4EEBF
:1048F000C77AF1EE10FA2ED5BDEC028B4FF07E5246
:104900001A60F8BD02282ED098200DF09FFDC8280F
:10491000A2D194200DF09AFD274B9FED2D8A18709F
:1049200091200DF093FD264B187092200DF08EFD16
:10493000244B187093200DF089FD204B18709520A2
:104940000DF084FD07EE900AB8EEE77A1E4BC7EE35
:10495000087AA720BCE7B7EE007AF4EEC77AF1EE4A
:1049600010FAC9DC89E790200DF070FDC8287FF4AB
:1049700073AF8E200DF06AFD0F4B9FED158A1870F6
:104980008B200DF063FD0E4B18708C200DF05EFD3A
:104990000C4B18708D200DF059FD084B18708F20AE
:1049A0000DF054FD07EE900AB8EEE77A064BC7EE1D
:1049B000087AA6208CE700BF1D1EFF1F9426FF1F4C
:1049C000D426FF1FC026FF1F181EFF1F281EFF1F13
:1049D0000000C8423333333F00B5832083B00DF06D
:1049E00035FD8DF8040084200DF030FD8DF80500B4
:1049F00085200DF02BFD8DF8060086200DF026FD9C
:104A00008DF80700019A024B1A6003B05DF804FBB1
:104A1000EC1EFF1F10B565200DF018FD724A01282D
:104A200094BF00F001030023662013700DF00EFD0B
:104A30006E4B122894BF02460D2267201A700DF0AB
:104A400005FD6B4A012894BF00F001030023682094
:104A500013700DF0FBFC012840F2B9800023654A79
:104A60006B2013700DF0F2FC634A012894BF00F034
:104A7000010300236C2013700DF0E8FC5F4A01284D
:104A800094BF00F0010300236D2013700DF0DEFCD5
:104A90005B4A012894BF00F0010300236F201370CC
:104AA0000DF0D4FC574A012894BF00F00103002305
:104AB000692013700DF0CAFC01287FD90023524AE7
:104AC000732013700DF0C2FC034610B1022818BF0A
:104AD00001234E4A6A2013700DF0B8FC4C4A01289D
:104AE00094BF00F001030123712013700DF0AEFCA0
:104AF0000228034659D8474A127812F0040F08BF1B
:104B00000023454A722013700DF0A0FC04280346D0
:104B100040D9424B002487201C700DF097FC0228DE
:104B200045D83F4B187078B189200DF08FFC0446B2
:104B300088200DF08BFC3B4B00EB04248A201C806A
:104B40000DF084FC384B187082200DF07FFC374B41
:104B50001B78032B2ED0C82843D0354B354A1A601A
:104B60007F200DF073FC344A344B1478032888BF3F
:104B70000020012C187009D1A8200DF067FC304BE3
:104B800001289ABF00F0010018701C70BDE81040A9
:104B9000FFF758BE214A872013700DF057FC0228FA
:104BA000BFD91F4B00221A70CEE70023A9E71C4B88
:104BB0001C70C9E71E4B234A1A60D1E7154B1A78BF
:104BC00012F001033FF47BAF00F0010377E7114BD4
:104BD0001B78C3F38003002B3FF441AF00F00103C7
:104BE0003DE7FFF7F9FEBBE7C928FF1F4E26FF1F71
:104BF0008C20FF1FE125FF1F0F1EFF1F011EFF1F3F
:104C0000F51EFF1FD226FF1FF61EFF1FE726FF1F00
:104C1000E126FF1F1108FF1FB226FF1FD425FF1F2B
:104C2000AC26FF1F401EFF1FD525FF1F4D26FF1F6F
:104C3000EC1EFF1F8FC2F53CF41EFF1F101EFF1F4E
:104C40005C1EFF1F0AD7233C30B5104B83B01B6896
:104C50008DF80430190A1A0C1B0E8DF805108DF80A
:104C600006208DF8073001AD8324204615F8011B7E
:104C700001340DF005FC872CF7D1C82182200DF0FE
:104C8000FFFB034B02221A7003B030BDEC1EFF1F66
:104C9000E225FF1F30B583B00FF054FC032816DD6A
:104CA0000E4B1B78032B12D001AC02AD0FF00EFCA3
:104CB00004F8010BAC42F9D1094B019A1A60FFF7D5
:104CC000C3FF7E2003B0BDE830400FF03BBD0020A5
:104CD00003B0BDE830400FF035BD00BF4D26FF1FCB
:104CE000D025FF1F30B583B00FF02CFC032816DD54
:104CF0000E4B1B78032B12D001AC02AD0FF0E6FB7C
:104D000004F8010BAC42F9D1094B019A1A60FFF784
:104D10009BFF7D2003B0BDE830400FF013BD0020A5
:104D200003B0BDE830400FF00DBD00BF4D26FF1FA2
:104D3000EC1EFF1F08B5012106200EF037F80121F7
:104D400009200EF033F801210F200EF02FF8012179
:104D500014200EF02BF8012115200EF027F8012168
:104D60000A200EF023F8012106200DF0EDFF0121AD
:104D700009200DF0E9FF01210F200DF0E5FF0121D1
:104D800014200DF0E1FF012115200DF0DDFF0121C0
:104D90000A200DF0D9FFBDE808400CF07BBC00BF35
:104DA0000E4B10B51C784CB18720FCF7CDFF0C4B97
:104DB0001B7863B10B4B01221A7010BD2D20FCF73C
:104DC000C3FF074B1B7833B9074A537010BD064B1E
:104DD00001225A7010BD034B1C7010BD9626FF1F98
:104DE000B826FF1FC426FF1F301EFF1F10B50FF08F
:104DF000A9FB002804DD0FF069FBC0B2012804D92B
:104E00000020BDE810400FF09DBC074C00F00100F1
:104E10002070FFF7C5FF217870200DF031FB8B204B
:104E2000BDE810400FF08EBC9626FF1F2DE9F04F15
:104E3000430089B0DFF8E8B2DFF8E882AE4AAF4E4F
:104E4000029003EB000A03939BF8000098F80030EF
:104E50001178AB4AAB4C127827684FEACA0A06EBC6
:104E60000A0943EA00230593B9F8083042EA01220F
:104E70001907049245D5B9F90650D9F81430B9F993
:104E8000042036F90A00B9F9021001932B46D9F82B
:104E900010500095FEF7E6FBB9F80830DA0600F18D
:104EA0001681DB074CBF984B984B029A1B68DFF8C2
:104EB00078A2C3F3072C5FFA83FE039B88F800E017
:104EC0001344DD0006EB0509705BB9F80210B9F870
:104ED0000630B9F804208BF800C00B440244FDF7FB
:104EE00013FA705BB9F80210B9F80630B9F804206B
:104EF0000B4402440133013201390138FDF704FA51
:104F000099E0834B36F80A001A68B9F804C0B9F87A
:104F10000210B9F8063088F800204FEA122E0B4430
:104F20000CEB00028BF800E0FDF77EFA774B36F8C9
:104F30000A001A68B9F804C0B9F80210B9F80630C6
:104F400088F800204FEA122E0B440CEB00028BF87D
:104F500000E0FDF7D9F936F80A00B9F80210B9F8FF
:104F60000420B9F8063002440B4401330132013801
:104F70000139FDF7C9F9B9F80820D5074CBF624BD4
:104F8000644B1B689007C3F30721DBB288F800303D
:104F90008BF800106AD4604B039A196821600B7873
:104FA00023711D46029B91F801A084F805A0D31837
:104FB000DB0006EB03098878D9F80C20A071C978CA
:104FC00006931046E171079215F0FAFE069BB9F8B8
:104FD00006E0F35AB9F80410B9F802C0079A4FEA8C
:104FE0005A0ACAEB5E0A03EB51090AEB0C0306935B
:104FF000474B1B6800FB05F0591CA9EB500963D017
:105000003F48190A03703C4B4FF0000E1970DFF84F
:1050100018A110460023069A8AF800E04946FEF7D8
:10502000B5F9039B029A134406EBC306338903F0D8
:105030000603062B4ED027603B7823717B78637183
:10504000BB78A371059B049DFA7888F80030180A94
:105050008BF800002A48E27105702748290A0023CE
:1050600001708AF8003009B0BDE8F08F2B4B02992F
:105070001868039B206003EB010E027822714FEA4F
:10508000CE0E06EB0E0C4378BCF806A063715B08ED
:10509000C3EB5A03BCF802A090F80290BCF80410CD
:1050A00084F8069053440693194B36F80EE01B68BB
:1050B000C078E0714FEA5209C9EB510101EB0E09CA
:1050C000591CDCF80C209BD14FF0010E9FE7DFF854
:1050D00058A0B0E7069D2179F068C1EB09012A4686
:1050E0000023FEF753F92179F0682A46494400234A
:1050F000FEF74CF99FE700BF1E25FF1FE826FF1FA4
:10510000C425FF1FDC1EFF1FE425FF1FDC25FF1F3A
:10511000E81EFF1FCC28FF1FC825FF1F201EFF1FF2
:10512000B326FF1FB926FF1F0E1EFF1F2DE9F04FEC
:10513000774B89B01B7801908946002B40F0E380C3
:10514000744906A806F04CF9734FDFF8E0813E7809
:1051500098F80030714DBDF91A20BDF918B043EA36
:105160000623009392462B4600204FF0FF3402E0C6
:105170000130142827D09A7A1E88B3F802C0998883
:10518000B3F806E02AB11E3EACF1140C3C310EF12E
:10519000280E1A8912F4004F03F11803E8D1D20740
:1051A000E6D4621CE4D15E453144E1DC8B45DFDCB2
:1051B000D445DDDCE644F245D4BF04464FF0FF346D
:1051C00001301428D7D1601C0BD04FEA440A0AEBF7
:1051D0000403DB0005EB030E5048BEF80810C906B7
:1051E0006DD5B9F1000F4BD0DFF84491D9F80030FC
:1051F0000293DDF808A0FCF7E9F938B1D9F80030DE
:105200000393039BCAEB0303312BF4D9631C2ED009
:105210004FEA440A0AEB0403DB0005EB030E3F48A8
:10522000BEF80810CA0622D43D4AC05A126888F84F
:105230000020120ABEF802103A70BEF80630BEF81E
:105240000420A24402440B444FEACA0AFDF75CF86A
:1052500005EB0A0235F80A005188D38892880B447E
:1052600002440133013201390138FDF74DF8009A4B
:1052700088F80020130A20463B7009B0BDE8F08F83
:10528000019B9BB1DFF8A890D9F800300493DDF8BA
:1052900010A0FCF79BF90028B8D0D9F8003005938E
:1052A000059BCAEB0303952BF3D9AFE7FCF78EF907
:1052B0000028ABD0FCF78AF90028F7D1A6E7194AF5
:1052C000C05A126888F80020120ABEF802103A701C
:1052D000BEF80630BEF80420A24402440B444FEA54
:1052E000CA0AFDF711F805EB0A0235F80A005188E1
:1052F000D38892880B4402440133013201390138CA
:10530000FDF702F86DE7084906A805F061FF1BE705
:10531000B826FF1F301EFF1FB326FF1FE826FF1F02
:10532000DC25FF1F5426FF1FC426FF1FB926FF1FC1
:10533000C429FF1F134B14491B78022B10D0012BDB
:1053400014D0032B17D0042B04D0104AFF230B706A
:10535000137070470D4B00201F2208701A707047A1
:105360000A4BF820002208701A707047074A002381
:105370000B7013707047054B0420002208701A70E0
:10538000704700BFD425FF1FB326FF1FB926FF1F9C
:1053900010B50FF0D7F8002804DD0FF097F8C0B271
:1053A000042804D90020BDE810400FF0CBB9064C0A
:1053B0002070FFF7BFFF217872200DF061F8832085
:1053C000BDE810400FF0BEB9D425FF1F2DE9F04114
:1053D000044669B31A4E1B4DCE220621592732705E
:1053E0000846EA234FF49D722F70FDF71DF8164A08
:1053F000164B10781871204654785C711A609478B6
:105400001349D278DA71DFF850E0124F9C715922BB
:1054100000240A70CE238EF800303C70234634708E
:105420002C706E2242F20E71BDE8F041FDF7AEBF66
:105430004CF65960FCF7A0FE014E024DD7E700BFC5
:10544000B326FF1FB926FF1F347B0200DC1EFF1F9F
:10545000C425FF1F0E1EFF1F1E25FF1F70B52DED5B
:10546000028B8C4C82B04FF0FF3205460E4620680E
:10547000172106F0ADFB002108EE100A206806F0A7
:105480009DFBB8EEC88AF7EE087A28EE278A9FEDD2
:10549000827A07EE900A28EE078AF8EE677A2120D2
:1054A000C8EE278A0CF008FFFFEE007AF4EE678A58
:1054B000F1EE10FA4ED1322852DC784A137823F0FC
:1054C00020031370764B1B78002B53D1754B1B7840
:1054D000002B5FD0DFED747A78EEA78A002E40D0E3
:1054E000DFED727A9FED727A77EEE87A67EE877A6F
:1054F000B6EE007AF5EEC07AF1EE10FA54DB77EEF4
:10550000877AFDEEE77ACDED017A9DF904309DF8BA
:105510000410684CAA2023700CF0B2FF25BB94F94C
:10552000000048B107EE900ADFED616AF8EEE77A15
:1055300087EEA67A78EE878ADFED5F7AF4EEE78A67
:10554000F1EE10FA1DDB64225C4B1A7002B0BDEC68
:10555000028B70BD3228C1DC514B1B7853B9B5E7C3
:10556000FEB9544C002DDAD0AA200CF06FFF40B2E7
:105570002070D6E7DFED527A78EEA78A002EF0D0C1
:10558000AEE7F1EE007AF4EEE78AF1EE10FA16DB00
:105590005A22D9E7F5EE007A78EEA78A002EE0D0FD
:1055A0009EE703210B46B4E777EEC77AFDEEE77A74
:1055B000CDED017A9DF904309DF80410A9E7DFEDE7
:1055C000417AF4EEE78AF1EE10FA01DB5022BBE7F4
:1055D000DFED3D7AF4EEE78AF1EE10FA01DB4622C8
:1055E000B2E7DFED3A7AF4EEE78AF1EE10FA01DB8A
:1055F0003C22A9E7DFED367AF4EEE78AF1EE10FA05
:1056000001DB3222A0E7DFED337AF4EEE78AF1EE38
:1056100010FA01DB282297E7DFED2F7AF4EEE78A14
:10562000F1EE10FA01DB1E228EE7DFED2C7AF4EEAC
:10563000E78AF1EE10FA11DB1423204A1370002DD3
:1056400084D000212648FFF7C1FE4FF47A7002B0E3
:10565000BDEC028BBDE870400DF008BCDFED217A97
:10566000F4EEE78AF1EE10FA01DB0A23E5E7F0EE4B
:10567000087AF4EEE78AF1EE10FA104AB4BF4FF060
:10568000FF3300231370002BD9D002B0BDEC028B86
:1056900070BD00BFBC26FF1F333353401108FF1FEE
:1056A000F41EFF1FCA28FF1FCDCC4C3DCDCC84403B
:1056B0000000C842E025FF1F333383401C1EFF1F3C
:1056C0009A99193E1F857B40EC5178408FC27540F6
:1056D00033337340D7A3704052B86E40CDCC6C408A
:1056E00060F90100713D6A4038B5174B1B7873B102
:1056F000164B1B78012B0AD0154D2B7804463BB175
:10570000002104200DF020FB00232B708CB938BD44
:10571000012104200DF018FB01212970002CF6D086
:105720000C48FFF753FE4FF47A70BDE838400DF097
:105730009DBB09480121FFF749FE4FF47A70BDE88F
:1057400038400DF093BB00BFCA28FF1FF41EFF1F97
:10575000D326FF1FB0F901009CF901002DE9F041AB
:105760004CF65960FCF708FD894B8A4D1C78597836
:1057700069712C712B60D978DFF864E2864A87481A
:1057800093F802C0864EE9710024864F0470CE2340
:1057900059218EF8003011704FF01F0E23460A2257
:1057A00042F20E71804885F806C086F800E03C7031
:1057B000FDF7ECFD7D4B7E4893F801C093F802E0C5
:1057C00019783C7032223470DE782B6029712346C0
:1057D000114685F805C085F806E0EE71FDF7D6FDA7
:1057E0002346462232217348734DFDF7CFFD2346F1
:1057F0005A2232217148FDF7C9FD23466E2232211B
:105800006F48FDF7C3FD2346822232216D48FDF724
:10581000BDFD2346962232216B48FDF7B7FD234696
:10582000AA2232216948FDF7B1FD2346BE2232216A
:105830006748FDF7ABFD2B7813F001035CD02346DE
:105840003222DC216348FDF7A1FD2B78C3F340032E
:10585000002B5BD000234622DC215E48FDF796FD3D
:105860002B78C3F38003002B5AD000235A22DC216B
:105870005848FDF78BFD2B78C3F3C003002B59D09C
:1058800000236E22DC215348FDF780FD2B78C3F303
:105890000013002B58D000238222DC214D48FDF755
:1058A00075FD2B78C3F34013002B57D000239622AD
:1058B000DC214848FDF76AFD2B78C3F38013002BE9
:1058C00056D00023AA22DC214248FDF75FFD2B7849
:1058D000DB1155D1BE22DC213F48FDF757FD40F2D8
:1058E000DC500DF0C3FA0023DC2242F20E713B487B
:1058F000BDE8F041FDF74ABD3222DC213648FDF714
:1059000045FD2B78C3F34003002BA3D14622DC21B5
:105910003148FDF73BFD2B78C3F38003002BA4D166
:105920005A22DC212C48FDF731FD2B78C3F3C0034C
:10593000002BA5D16E22DC212748FDF727FD2B780F
:10594000C3F30013002BA6D18222DC212248FDF7ED
:105950001DFD2B78C3F34013002BA7D19622DC2129
:105960001D48FDF713FD2B78C3F38013002BA8D13E
:10597000AA22DC211848FDF709FD2B78DB11A9D0FC
:105980000023BE22DC211348FDF700FDA7E700BF7E
:10599000506F0200DC1EFF1FC425FF1F0E1EFF1FDD
:1059A000B926FF1FB326FF1F6CFA0100347B0200EB
:1059B0007CFA01008CFA01001108FF1F9CFA01001B
:1059C000ACFA0100BCFA0100CCFA0100DCFA0100DB
:1059D000ECFA0100FCFA010004FB01000CFB0100E1
:1059E0001E25FF1F10B581200CF030FDC8280ED0F9
:1059F0000B4C2378FF2B09D0FFF7B0FE2378C3F3BD
:105A000080031BB90749084A0B70137010BD0021B1
:105A100081200CF035FD024BFF221A7010BD00BF33
:105A20001108FF1FB226FF1FE125FF1FF0B54B4BEA
:105A30001C7883B05CB18720FCF786F9484B1B7853
:105A4000002B00F08380474B01221A7008E02D20C4
:105A5000FCF77AF9424B1B78002B7BD1424A5370FA
:105A6000424B434E03F5F07000224FF400411A8080
:105A70005A809A80DA801981DE60183383424FF0B1
:105A80000004F4D13B483C4F3C4E076038783071FD
:105A9000787870713760B878B0713949F878394AD8
:105AA000394B0C60F0711F21384811601C60384977
:105AB000384A04604FF6FF7318460C601360FCF719
:105AC0005BFB354B35491A78327133605A78727105
:105AD0009A783348DB78F371FF230B700370B2714F
