:1000000000000320D1010000E50A02009D0A020061
:100010009D0A02009D0A02009D0A02009D0A02003C
:100020009D0A02009D0A02009D0A0200E50A0200E4
:10003000E50A02009D0A0200E50A02008D0A02009C
:10004000E50A0200E50A0200E50A0200E50A0200EC
:10005000E50A0200E50A0200E50A0200E50A0200DC
:10006000E50A0200E50A0200E50A0200E50A0200CC
:10007000E50A0200E50A0200E50A0200E50A0200BC
:10008000E50A0200E50A0200E50A0200E50A0200AC
:10009000E50A0200E50A0200E50A0200E50A02009C
:1000A000519C0100A1A10100E50A0200E50A02003D
:1000B000E50A0200E50A0200E50A0200151C02003A
:1000C000E50A0200F93E0200E50A020015450200B9
:1000D000E50A0200C54B0200E50A0200E50A02003B
:1000E000E50A0200E50A0200E50A0200E50A02004C
:1000F000E50A0200E50A0200E50A0200E50A02003C
:10010000E50A0200E50A0200E50A0200E50A02002B
:10011000E50A0200D51E0200E50A0200E50A020017
:10012000E50A0200E50A0200E50A0200E50A02000B
:10013000E50A0200E50A0200E50A0200E50A0200FB
:10014000E50A0200E50A0200AD510200E50A0200DC
:10015000E50A0200E50A0200E50A0200E50A0200DB
:10016000E50A0200E50A02004DA70100E50A0200C7
:10017000E50A0200E50A0200E50A0200E50A0200BB
:10018000E50A0200E50A0200E50A0200E50A0200AB
:10019000E50A0200E50A02008D580200E50A0200A5
:1001A000E50A0200E50A0200E50A0200F9AC0100D6
:1001B000E50A0200E50A0200E50A0200E50A02007B
:1001C000E50A0200E50A0200E50A0200E50A02006B
:1001D0005C4B4CF2205210B51A804DF628121A8052
:1001E00000BF00BF20F082FC574B4FF030621A6016
:1001F000564A9A60564ADA60564B4FF470021A60BB
:10020000554B564A1A60564A136813F4807304D14A
:1002100054490B604FF4A8531360534B1A781107DD
:1002200003D51A7842F008021A70504B5049AA229E
:100230001A70504A504B8B4204D252F8040F43F8C4
:10024000040BF8E74D4B4E4900228B4202D243F893
:10025000042BFAE74B494C4A002352F8230041F89B
:1002600023000133742BF8D1484B494A802103F80D
:10027000011B9342FBD1474B424A1A60464B8A22EC
:100280001A70A3F5805324225A70A0221A709A790A
:100290009207FCD59A79D406FCD4404A937903F0AE
:1002A0000C03082BFAD13E4B60221A7002331A78E5
:1002B000802AFCD1394B00221A714E225A719A7948
:1002C0009006FCD59979354A4906FBD5354B364918
:1002D00019600821596020231370937903F00C03EF
:1002E0000C2BFAD1314B324A1A60324B324A1A6027
:1002F00000225A60072243F8042C304AC3F80C2D20
:1003000062B620F0FFFE174B1B68DA0705D52C48B4
:1003100020F0E6FE2B4B2C4A1A602C4B1B785B0618
:1003200009D5284C284B22689A4204D1244820F051
:10033000D7FE0023236027F0ABFF04F043FB22F03D
:10034000B7FEFEE70E20054030800440823F0400E7
:100350000100002B88ED00E0002008E0030000858C
:1003600010D0034014D0034002D0074000E0074003
:10037000201EFF1F08E403003007FF1F201EFF1F81
:100380002031FF1F0002FF1F0000000000E400E01A
:1003900064E400E008ED00E0005006400040064044
:1003A00001E007404480044000000703048004404B
:1003B000C010050014E000E07FA903000000202029
:1003C000AD6F00001CE00340A5C3945A00F0074045
:1003D000FFFFFFFFFFFFFFFFFFFFFFFFFFFFFFFF2D
:1003E000FFFFFFFFFFFFFFFFFFFFFFFFFFFFFFFF1D
:1003F000FFFFFFFFFFFFFFFFFFFFFFFFFFFFFFFF0D
:10040000FFFFFFFFFFFFFFFFFFFFFFFFDEF9FFFF23
:1004100010B5054C237833B9044B13B10448AFF33E
:1004200000800123237010BD201EFF1F000000006C
:1004300004E40300084B10B51BB108490848AFF3AA
:1004400000800848036803B910BD074B002BFBD0A0
:10045000BDE81040184700BF00000000241EFF1F29
:1004600004E40300201EFF1F000000002DE9F04FF0
:100470009088D58885B0A84202915BD84149424B0B
:1004800009781E78414C424B94F800B01B78414FDC
:10049000DFF804E1DFF804C1D7F800A09EF80040BF
:1004A0000394C1EB8178C1EB880806EB860608EB64
:1004B00006094FF4C86101FB0B91C3EB83770CFB7A
:1004C0000319C3EB870301930021052313FB0B03DF
:1004D000EF2B2BDC019BD84228D413885488A342ED
:1004E00024D8039D00EB800C4FEA8C1C35BB029D89
:1004F00005EB41059F19B7F5A07F0EDA13EB080F46
:1005000003EB0C0709D42C884F441CB94FF00104AD
:100510002C8001242AF81740548801339BB29C4256
:1005200001F1010105F10205E4D2D588013080B264
:10053000A842CAD9012005B0BDE8F08F029D05EBA5
:10054000410503EB060EBEF5A07F03F1010701F1A3
:10055000010111DA13EB080F63440DD44B442C88CE
:10056000AAEB430303F515331CB94FF001042C80AB
:100570000124A3F8FE435488BBB2A34205F102054F
:10058000DFD9D2E76029FF1F4829FF1F5421FF1F31
:100590001429FF1F481EFF1F1629FF1FC0F9FFFF68
:1005A0002DE9F04F89B0B2F804E00191D1888E4571
:1005B00000F291807B4B7C481C787C4F7C4B90F800
:1005C00000801D783F787B4B029792467A4A7B4E9B
:1005D00012780392C4EB84377948D3ED004A367819
:1005E00000680096C4EB870308EB88071F44039B51
:1005F00007900EEB8E0603EB8303C5EBC50007EBFC
:10060000461603EB83036F4A00EB001006EB43161C
:10061000C5EB857900EB0010C5EB890306EB401CA8
:10062000C4EB847B127806931FFA8CFCC4EB8B0B13
:100630004FF005090027B7EE004ABDF80C0005236E
:1006400013FB00E3772B3CDC069B1EEB030F38D437
:10065000BAF80030BAF802509D4232D30137CDF8D3
:1006600014E0BFB2DDF81CE021E0C3F19F01C9B284
:1006700019FB08149F2C13DC11EB0B0F10D4029CF8
:100680006144022C89B2019C2ED034F810400098AD
:1006900028B3C1F595417F312EF81140BAF80250C8
:1006A00001339BB2791C9D4289B206D30F46781E56
:1006B00080B2002AD9D0D9B2DAE7DDF814E0BAF86E
:1006C00006100EF1010E1FFA8EFE0CF1A00C8E45E5
:1006D0001FFA8CFCB1D9012009B0BDE8F08F2EF8CB
:1006E0001140BAF80250DBE734F810000412C510CC
:1006F00004F0F80407EE904A05F0FC0406EE904A78
:10070000009CC000002C4AD0C1F595467F363EF8CB
:100710001640E51005F0FC0507EE105AF8EEE66A03
:10072000C0B2F8EEC75A34EE646A07EE100A66EEFD
:10073000A46AE000C0B22512E6EE256A05F0F804CE
:1007400005EE900AB8EEC77AB8EEE55AF8EEE77A09
:1007500005EE904A27EE247AF8EEE55A67EEA47A81
:10076000A6EE057AE5EE867AFCEEE66ABCEEC77A7E
:10077000CDED046AFCEEE77A9DF8106017EE105A92
:1007800017EE900AF40004F0E004C5F3C40500F08D
:10079000F8002C4340EA561044EA002477E73EF87C
:1007A0001140B6E76029FF1F4829FF1F3629FF1FA8
:1007B0001429FF1F641EFF1F5421FF1F1629FF1F4E
:1007C0003C1EFF1F622BFF1F08301CF013BC00BF34
:1007D00000B583B002AB012203F8011D08301946B1
:1007E0001CF008FC03B05DF804FB00BF38B5856F52
:1007F000AC88EB88E41A944228BF144631B108460D
:100800002968224619441FF083FEEB882344EB80BD
:10081000204638BD00F58C601EF010BE2DE9F04179
:100820002F4B304F1B7884B00BB93B78B3B13A787B
:100830002C4B022A3BD01A78032A02D004B0BDE820
:10084000F08101221A70284819F000F9264819F0A1
:1008500035F90028F7D104B0BDE8F081234B1B78AF
:10086000002BE4D1DFF8908098F80030002BDED127
:100870001F4B1B78002BDAD11E4D2B6802930A20E8
:10088000029E20F00FFE2B680193019CA41B1648CA
:1008900019F0DCF8144819F011F9D0B1B4F57A7FE9
:1008A00012DD01233B703A780E4B022AC3D103229A
:1008B0001A700D4819F0CAF80B4819F0FFF8002813
:1008C000F7D104B0BDE8F0812B680393039CA41B0F
:1008D000DDE7B4F57A7FE4DA022388F80030A6E792
:1008E0007820FF1F6C29FF1F8C20FF1FDB22FF1FBA
:1008F000501EFF1F5C2CFF1F401EFF1F20F0EABB95
:1009000000F58C601FF098B800F58C601EF008BBF5
:1009100000F58C601EF07EBA2DE9F04F2DED028BB4
:100920004FF0000A8FB04FF0000BCDE904ABCDE9DA
:1009300002ABCDE900AB01F5C8730C46D046D946F1
:100940000992851E069335F8026F304627F0B2F8FB
:1009500002460B464046494626F060FF8046304638
:10096000894627F097F802460B4627F009F9024618
:100970000B46DDE9000126F051FF07EE906AB4EC6A
:10098000018AF8EEE77ACDE9000167EE887A17EE82
:10099000900A27F0A1F802460B46DDE9020126F095
:1009A0003DFFCDE9020118EE100A27F095F8064642
:1009B0000F4602460B46DDE9040126F02FFF3246C2
:1009C000CDE904013B463046394627F0D9F80B46BD
:1009D00002465946504626F021FF069BA342824616
:1009E0008B46B0D142464B464046494627F0C8F8B0
:1009F000002204460D46524BDDE9000127F0C0F805
:100A000022462B4626F008FF00220023CDE90601EE
:100A100027F01EFB064600287DD1DDE90423404671
:100A2000494627F0ADF80022CDE90A01444B454F75
:100A3000DDE9020127F0A4F8DDE90A2326F0ECFE47
:100A4000DDE9062327F0C6F927F072FB3E4B18605C
:100A5000DDE90423DDE9000127F092F8DDE9022356
:100A6000CDE90C014046494627F08AF802460B467C
:100A7000DDE90C0126F0D0FEDDE9062327F0AAF916
:100A800027F056FB3860099F002F52D0DDE9042380
:100A90001046194627F074F80022294B27F09AF9DE
:100AA00002460B465046594626F0B6FE00228046C6
:100AB0008946234B2046294627F08CF902460B46EF
:100AC000DDE9000126F0A8FE02460B4640464946F5
:100AD00027F056F841EC100B25F0F2FBDDE90A0196
:100AE0000022174B8DED000B27F074F902460B46E0
:100AF000DDE9020126F090FE9DED000B53EC102B7A
:100B000027F068F927F014FB386030460FB0BDECD1
:100B1000028BBDE8F08F0B4A0B49002313600126BE
:100B2000099A0B60304613600FB0BDEC028BBDE834
:100B3000F08F3E4630460FB0BDEC028BBDE8F08F23
:100B4000000059403828FF1F2C21FF1F10B53A4BD9
:100B50001B7882B0002B4BD13849684618F0B6F9A3
:100B6000BDF80020BDF80200A2F10A039BB2822B5F
:100B700008D8A0F10A01462904D8314B01221A7085
:100B800002B010BDA2F1B40189B282290CD9822B26
:100B900014D98D3A262AF3D851384E28F0D8284B4C
:100BA00007221A7002B010BDA0F1A004462C03D891
:100BB000234B05221A70E3E7822B28D8592809D93C
:100BC000962807D81F4C2468012C16D01C4B0322F2
:100BD0001A70D5E7822903D8A0F10A03462B12D94F
:100BE000A0F1A003462BD4D8154B06221A70C7E7F4
:100BF0001549684618F062F8B2E78229F0D8A0F1EA
:100C00000A0146290FD80E4B02221A70B8E7A0F14C
:100C10005A013C290AD80B4909680129EFD0084B31
:100C200004221A70ACE7822BDAD9B2E7A0F10A03EA
:100C3000462BE8D9ADE700BF4029FF1F4828FF1F1A
:100C40002D29FF1F3028FF1F5029FF1F70B50446B4
:100C500008460D4628F0F4FB236802462946204644
:100C60005B68BDE870401847002AF0B5144FDFF804
:100C700058E014BF4FF060554FF06455002602E075
:100C8000172C08D0264637F8022F9EFBF2F291422D
:100C900006F10104F4D31A0701D545F08065094A2D
:100CA0005B0752F8262007D5130903F4706322F47A
:100CB000704245F000751A4315430560F0BD00BF52
:100CC00056D9030088D903000087930330B41E4B24
:100CD0001A7812B372B61B78DC0707D51B491C4A79
:100CE0000D6812681B4C2A4022600A60990707D5DC
:100CF0001949174A0D685268164C2A400A6062600A
:100D00005A0707D51549124A0D689268114C2A40B6
:100D10000A60A2601B070ED462B6114BDA688242E9
:100D200007D010491960104AD86040F0804119611D
:100D30001A6030BC70470D4A054B1468DB680549E2
:100D400023401360CB60E7E7302CFF1F80E100E019
:100D5000102CFF1F202CFF1F84E100E088E100E041
:100D600000C0024001401F0000001F808CE100E035
:100D70000D4B1B78BBB1D80703D50C490C4A096849
:100D80001160990703D509490A4A496811605A0751
:100D900003D50649084A896811601B0703D5034A31
:100DA000064BD2681A607047302CFF1F202CFF1FA3
:100DB00000E100E004E100E008E100E00CE100E017
:100DC0002DE9F0430C788BB000232F2C8DF80430E4
:100DD000074691468DF8053028D007F23C480A4670
:100DE00001A8414601231BF01FFE0646C8B19DF82D
:100DF000043013F0700F14D001AC0FCC45460FC572
:100E00000FCC0FC523682B60B9F1000F04D097F801
:100E10003C3413F0700F23D1012630460BB0BDE8EF
:100E2000F083002630460BB0BDE8F0834B78002BF2
:100E3000D3D100F23C4420461BF0B0FC394620469A
:100E40001BF072FE06460028EBD0B9F1000FE3D08C
:100E500097F83C3413F0700FE3D0054B1C60E1E7CA
:100E6000034B3046C3F800800BB0BDE8F08300BFF1
:100E7000082CFF1FF0B5DFF8B4C0254B254A264FDC
:100E800083B04FF4107E4FF480760C464FF400711F
:100E9000CCF800600546C3F800E001A8116000230B
:100EA00001221E493E60FFF7DFFE0198FFF70EFFAB
:100EB0001B4B1C49EDB210204FF000420860DA6273
:100EC00019465D63CB6A164A002BFBDAE4B24FF099
:100ED0000043916BD36210465463C36A104A002BDF
:100EE000FBDA114B926B0B4E0B4C10221A60FFF782
:100EF0003FFF0E49064A4FF480734FF400754FF4DC
:100F00001070336025600860136003B0F0BD00BF4F
:100F100004C004400CC004401CB0044000093D0063
:100F200000C0024088F00F4084F00F4014B004402D
:100F30002DE9F041264BDFF8B4E0264A264E27493A
:100F400082B04FF4807504464FF410774FF4007070
:100F5000CEF800501F60106000230122356001A808
:100F6000FFF782FE0198FFF7B1FE1D4B1D49E4B269
:100F700010204FF000420860DA6219465C63CB6AC9
:100F8000174A002BFBDA4FF000410023906BD1622F
:100F900011465363CB6A124A002BFBDA124BD2F88C
:100FA00038800C4F0C4D10221A60FFF7E1FE0F49FC
:100FB000074A4FF480734FF400764FF410745FFAD1
:100FC00088F03B602E600C60136002B0BDE8F081D9
:100FD00004C004400CC004401CB0044000093D00A3
:100FE00000C0024088F00F4084F00F4014B004406D
:100FF00008B501218420FFF73DFF01218420FFF780
:1010000039FF02218420BDE80840FFF733BF00BF4D
:101010002DE9F84F9DF8284080460D4691461E4622
:10102000002C5CD13D4C3E483E4F00231A465621D1
:1010300022F080F800231A463978394822F07AF8ED
:1010400000231A464146364822F074F8B9F1000FE1
:101050000DD009F1FF3955FA89F9013D002315F842
:10106000011F2F481A4622F065F8A945F6D1002243
:10107000134622709146DFF8B0A009E025786B1C7A
:10108000237020F055FD0AF805004FF00009237881
:101090009E4213D020F03CFD0028EFDC09F101094D
:1010A00001205FFA89F920F0FDF9B9F1C80FEED1FE
:1010B0002378B34202D00020BDE8F88F1A4B1A788B
:1010C000762AF8D13A7859789142F4D19A78424503
:1010D000F1D1D878B0FA80F04009BDE8F88F0F4C14
:1010E000DFF844B0002727700CE094F800A00AF164
:1010F0000103237020F01CFD0BF80A000027237861
:10110000642B90D020F004FD0028EEDC0137012094
:10111000FFB220F0C7F90A2FF1D184E77929FF1F28
:10112000F42DFF1F1529FF1F6828FF1F30B585B05C
:1011300004A900240123074DADF80C40022201F858
:10114000043D3620009305232C80FFF761FF05B096
:1011500030BD00BF7A29FF1F2DE9F04F604C85B0EC
:1011600082469046A1460F465E4B5F494FF400729F
:101170001A60A3F57F634FF480724FF410701A6009
:101180000A6000230122C1F8F00F584903A8FFF7B5
:101190006BFD0398FFF79AFD554910204FF0004270
:1011A0003C230860E2626363E36A002BFCDA0026FA
:1011B000D9F83830D8F80030DFF850B131469942CC
:1011C0004FF0FF051CD29BF80030012B6ED04FF082
:1011D00000420023E2626363E36A002BFCDAD9F881
:1011E0003830DBB2002E43D00AF801300131142927
:1011F0004CD0D92B20D01D46D8F800309942E2D3EC
:101200003C4B10221A60FFF7B3FD3649364A4FF4C3
:1012100080730B60A1F57F614FF4007008604FF49C
:1012200010711160C2F8F03FFFB1334B1B78012BF6
:1012300052D0FFF77BFF97E7FF2DDCD12D4B0191BB
:1012400010221A60274C2D4DFFF792FD4FF480734A
:1012500025482B4A23604FF400764FF4107401990F
:101260002E6004601360C8F8001005B0BDE8F08F70
:10127000D82BBCD1FF2DBAD1FF21D8228AF800107B
:101280008AF80120012602211D46B5E7002FB0D1C2
:101290001C4A1278002AACD01B49019364220AF13F
:1012A00014001FF035F97821019BA2E7114B0D4E78
:1012B000124C10221A60FFF75BFD0B49104A4FF4E5
:1012C00080734FF400754FF4107033602560086030
:1012D000136005B0BDE8F08FFFF78AFE44E700BF5A
:1012E00000C002400CC0044014B0044000093D009E
:1012F00088F00F4084F00F403821FF1F1CB00440DD
:1013000004C004401629FF1F801C03007820FF1F23
:10131000F0B585B0012405254FF0190E8DF80D00AC
:10132000002702A92B4604260094062231208DF8BE
:101330000CE002978DF808508DF80A408DF809608E
:10134000FFF766FE2B46224602A9009426208DF860
:101350000870FFF75DFE4FF4967020F0A3F843F29B
:10136000D40020F0EFF80F2020F09CF8094B0094F7
:10137000186802902B46324602A92420FFF748FE47
:1013800041F2470020F0DEF80F2020F08BF805B086
:10139000F0BD00BF7CD10200F0B5802183B02348AE
:1013A00017F0F0FC20B1224B01221A7003B0F0BDFF
:1013B0000446204817F072FD1D4B1E491C706846FC
:1013C00017F084FD0A20BDF90060BDF9027020F01D
:1013D00069F805201FF0F8FF0A24012505201FF0F9
:1013E000F3FF00284FF00A0008BF002520F05AF84C
:1013F000013CF3D1104B1B786BB92346B34210D09C
:10140000BC4201D0002DD1D00C4A137823F0080340
:10141000137003B0F0BD4FF4A073B3424FF0F0046B
:10142000EED1BC42F0D1002DC0D1EDE75029FF1F15
:101430004029FF1F4828FF1F1629FF1F3108FF1FE3
:1014400008B5074B1B783BB1064817F065FC10B197
:10145000054B01221A7008BD044817F045FFF6E756
:101460004029FF1F5029FF1F5828FF1F4828FF1F32
:101470002DE9F0412A4D2B7886B0002B39D1294B2C
:101480001B78002B35D1284E3378002B31D1274BD8
:101490001B7873BB264B1B785BBBDFF8A080D8F8AA
:1014A000003004930A20049F1FF0FCFFD8F80020AE
:1014B000204B0592059C1B78E41B43B924E0B4F54E
:1014C0007A7F08DCD8F800300393039CE41BFFF715
:1014D000B7FF0028F3D1D8F800300193019BDB1B44
:1014E000B3F57A7F16DB144B1B78012B01D0012357
:1014F000337006B0BDE8F081B4F57A7FEBDCD8F844
:1015000000300293029CE41B05201FF05DFF0028C1
:10151000E1D1F1E701232B7006B0BDE8F08100BFF7
:101520007820FF1F6C29FF1FDB22FF1F401EFF1FBB
:10153000501EFF1F4029FF1F3629FF1F5C2CFF1F75
:1015400010B4134B134A1B78146840EA034040F070
:10155000006311465363104602E013F0F00F14D1FC
:10156000CB6A0C4A13F0805FF7D04FF08053D36200
:101570001460D36A13F0F00F04D0936BD36A13F0A6
:10158000F00FFAD15DF8044B7047836BE8E700BFBA
:10159000602BFF1F00C0024010B4134B134A1B788E
:1015A000146840EA034040F000631146536310465C
:1015B00002E013F0F00F14D1CB6A0C4A13F0805FF5
:1015C000F7D04FF08053D3621460D36A13F0F00F5A
:1015D00004D0936BD36A13F0F00FFAD15DF8044B8B
:1015E0007047836BE8E700BF6B1EFF1F00C002401F
:1015F00010B4134B134A1B78146840EA034040F0C0
:10160000C05311465363104602E013F0F00F14D19B
:10161000CB6A0C4A13F0805FF7D04FF08053D3624F
:101620001460D36A13F0F00F04D0936BD36A13F0F5
:10163000F00FFAD15DF8044B7047836BE8E700BF09
:101640006B1EFF1F00C00240F0B4324C324F2678B0
:10165000360446F0004444F02A047C63FC6A04F437
:10166000704514F0F00F18BFBC6BB5F5405FF5D8AE
:101670002A4C294F25782D04284340F010407863E8
:10168000F86A00F4704410F0F00F18BFB86BB4F5AE
:10169000405FF5D82A43204C42F010426263E26A70
:1016A00002F4704012F0F00F18BFA26BB0F5405F6B
:1016B000F5D846F00046184C46F02B066663E26A01
:1016C00002F4704012F0F00F18BFA26BB0F5405F4B
:1016D000F5D82943104841F010414163C26A02F431
:1016E000704112F0F00F18BF826BB1F5405FF5D872
:1016F0002B43094943F010434B63CB6A03F4704218
:1017000013F0F00F18BF8B6BB2F5405FF5D8F0BC4B
:10171000704700BF602BFF1F00C002406B1EFF1F01
:1017200038B50D4604464FF03840FFF7CFFAA2B265
:10173000ABB219461046FFF787FF0F4B0F4A1B78D5
:101740001B0443F0004343F02C035363D36A03F4B8
:10175000704113F0F00F18BF936BB1F5405FF5D8EF
:10176000074A084B10781B7843EA0020FFF740FF38
:10177000FFF7FEFA38BD00BF602BFF1F00C002401C
:101780003829FF1F4129FF1F8318B3F5A07F70B5CB
:10179000C8BFC0F5A07504464FF03840D8BF154605
:1017A0000E46FFF793FAA0B2421EB3B22A4419467E
:1017B00092B2FFF749FF1B4B1B491B781B0443F0F8
:1017C000004343F02C034B63CB6A03F4704213F0E5
:1017D000F00F18BF8B6BB2F5405FF5D81349144A70
:1017E000144B127808781B780F4C42EA00202A46E6
:1017F00040EA0343012A43F010450DDD6563E36AC7
:1018000003F4704113F0F00F18BFA36BB1F5405F04
:10181000F5D8013A012AF1DCFFF7EAFEFFF7A8FA52
:1018200070BD00BF602BFF1F00C002403829FF1FA2
:101830004129FF1F6B1EFF1F8B1870B5F02B0C4644
:1018400006464FF03840CCBFC1F1F0051546FFF712
:101850003DFAA1B24B1EB2B22B449BB21046FFF729
:10186000F3FE1B4B1B491B781B0443F0004343F062
:101870002C034B63CB6A03F4704213F0F00F18BFD4
:101880008B6BB2F5405FF5D81349144A144B1278AC
:1018900008781B780F4C42EA00202A4640EA0343AE
:1018A000012A43F010450DDD6563E36A03F47041DE
:1018B00013F0F00F18BFA36BB1F5405FF5D8013AF4
:1018C000012AF1DCFFF794FEFFF752FA70BD00BF6A
:1018D000602BFF1F00C002403829FF1F4129FF1F56
:1018E0006B1EFF1F70B505464FF038400E46FFF7E0
:1018F000EDF989494FF6FF73CA6A013B12F4704F44
:101900009BB201D0002BF7D1834B4FF00042DA623B
:101910001A464FF6FF73D16A013B00299BB201DBE7
:10192000002BF8D17C4BDC6AC4F30314002C35D1B6
:101930007A4B794A18787A49000440F0004343F022
:10194000D90353630B78284310361D0440F0004040
:101950002E435663114650634FF6FF735563CA6AB0
:10196000013B12F4704F9BB201D0002BF7D16A4BB0
:101970004FF00042DA621A464FF6FF73D16A013B1C
:1019800000299BB201DB002BF8D1634BDA6A12F01D
:10199000F00F5ED1FFF7ECF9204670BD9C6BDA6A60
:1019A00012F0F00FE4B2C3D09C6BDA6A12F0F00FC1
:1019B000E4B2BDD09C6BDA6A12F0F00FE4B2B7D09B
:1019C0009C6BDA6A12F0F00FE4B2B1D09C6BDA6A69
:1019D00012F0F00FE4B2ABD09C6BDA6A12F0F00FA9
:1019E000E4B2A5D09C6BDA6A12F0F00FE4B29FD09B
:1019F0009C6BDA6A12F0F00FE4B299D09C6BDB6A50
:101A000013F0F00FE4B293D0434B9C6BDA6A12F000
:101A1000F00FE4B28CD09C6BDA6A12F0F00FE4B2F3
:101A200086D09C6BDA6A12F0F00FE4B280D09C6B27
:101A3000DA6A12F0F00FE4B23FF47AAF9C6BDA6A24
:101A400012F0F00FE4B23FF473AF9C6BDB6AE4B2C8
:101A50006EE79C6BDA6A12F0F00FE4B29AD09C6BDE
:101A6000DA6A12F0F00FE4B294D09C6BDA6A12F0EA
:101A7000F00FE4B28ED09C6BDA6A12F0F00FE4B291
:101A800088D09C6BDA6A12F0F00FE4B282D09C6BC3
:101A9000DA6A12F0F00FE4B23FF47CAF9C6BDA6AC2
:101AA00012F0F00FE4B23FF475AF9C6BDA6A12F0FB
:101AB000F00FE4B23FF46EAF9C6BDB6A13F0F00FF3
:101AC000E4B23FF467AF144B9C6BDA6A12F0F00F8C
:101AD000E4B23FF45FAF9C6BDA6A12F0F00FE4B24D
:101AE0003FF458AF9C6BDA6A12F0F00FE4B23FF4A7
:101AF00051AF9C6BDA6A12F0F00FE4B23FF44AAFD8
:101B00009C6BDA6A12F0F00FE4B23FF443AF9C6BC7
:101B1000DB6AE4B23EE700BF00C00240602BFF1F5B
:101B20006B1EFF1F10B504464FF03840FFF7CEF88C
:101B3000204B214A1B781B0443F0004343F036033B
:101B40005363D36A03F4704113F0F00F18BF936B23
:101B5000B1F5405FF5D804F00300184B0228187067
:101B60001ED003280AD0012811D04820FFF714FD09
:101B7000134B01221A70FFF7FBF810BDE820FFF7A6
:101B80000BFD0F4B00221A70FFF7F2F810BD282052
:101B9000FFF702FD0A4B00221A70FFF7E9F810BDAB
:101BA0008820FFF7F9FC064B01221A70FFF7E0F8D6
:101BB00010BD00BF602BFF1F00C002403428FF1F74
:101BC0002421FF1FF8B515201EF0F2F8344D354ED4
:101BD000287006201EF0ECF82B78002103430F201C
:101BE0003370FFF77FFE04464FF03840FFF76EF882
:101BF000042796F800E02D782B482C497E1E4FEAEA
:101C00000E4E2D04F6B277B3437843EA0E0343F049
:101C100000434B63871CCB6A03F4704213F0F00F50
:101C200018BF8B6BB2F5405FF5D8B31C00EB030C0B
:101C30003846604511D010F8013B2B4343F0004378
:101C40004B63CB6A03F4704213F0F00F18BF8B6B39
:101C5000B2F5405FF5D86045EDD1B819BF5D7E1E85
:101C6000F6B2002FD0D11120FFF76AFCFFF780F801
:101C700078201FF017FC4FF03840FFF727F8292095
:101C8000FFF75EFCFFF774F8094A0A4B17602D2036
:101C90001F70FFF747FF084B20461F70F8BD00BFBD
:101CA0006B1EFF1F602BFF1F1CBF030000C0024004
:101CB0001C21FF1F521EFF1F7C29FF1F30B5184C2F
:101CC0002578012D85B0044608D01648007880B1EB
:101CD000154A164B1480198005B030BDC2F1EF00D3
:101CE0001A46C4F1EF030C4601460E48007800285E
:101CF000EED14FF03840039302920191FEF7E6FFD8
:101D0000039B029A01999BB292B289B2A0B2FFF7EB
:101D10009BFC2C20FFF714FCFFF72AF805B030BD20
:101D20002421FF1F7C29FF1FD028FF1FD228FF1F5F
:101D3000F8B505464FF03840FEF7C8FF204B1B783A
:101D400003B330263346EF2231465020FFF7B6FF6B
:101D500005F5A0773C4634F8020DFFF749FCAC428C
:101D6000F9D10136A82E3D46ECD10021084640F2BB
:101D70003F13EF22FFF768FC2C20FFF7E1FBFEF793
:101D8000F7FFF8BDA723EF2230215020FFF796FF81
:101D900005F51546FE36AC1E34F8020FFFF728FC99
:101DA000A642F9D100210846EF2340F23F12FFF787
:101DB0004BFC2C20FFF7C4FBFEF7DAFFF8BD00BF99
:101DC0002421FF1F2DE9F04F824683B04FF03840A9
:101DD00098460D461746FEF779FF2F4B1B789BB3AD
:101DE000B8F1000F21DD0AEB070908EB05030C9C95
:101DF000019309F1FF394FEA470B3E462B464A460D
:101E000029465046FFF75AFF002F08DD0C9B03EBD5
:101E1000460838F8020DFFF7EBFBA045F9D1019B0E
:101E200001359D425C443E44E8D10021084640F221
:101E30003F13EF22FFF708FC2C20FFF781FBFEF792
:101E400097FF03B0BDE8F08F05EB08030AEB07022C
:101E5000013B2946013A504608FB07F8FFF72EFFE1
:101E6000B8F1000F08DD0C9C04EB480534F8020BB8
:101E7000FFF7BEFBAC42F9D100210846EF2340F248
:101E80003F12FFF7E1FB2C20FFF75AFBFEF770FF34
:101E900003B0BDE8F08F00BF2421FF1F074B197866
:101EA00031B10021084640F23F13EF22FFF706BF91
:101EB000EF2340F23F120846FFF700BF2421FF1F27
:101EC0001E4B1B7843B31E4B1B78012B10D01D4BB0
:101ED0001D4A1B88128803EB830302EB4313B3F5FF
:101EE000964F04DA194A126822F8130070477047B7
:101EF000174B1B78002BEAD0124B134A1B88128811
:101F000003EB830302EB8313B3F5963FEFDA114A39
:101F1000126822F81300704710B582B001220E49F2
:101F2000044601A8FEF7A0FE0198FEF7CFFEA0B27E
:101F3000FFF75EFBFEF71CFF02B010BD7C29FF1F00
:101F40003821FF1FD228FF1FD028FF1F3C1EFF1F74
:101F50009C20FF1F481EFF1F80C3C9012DE9F04FC1
:101F60004E4C277883B091461E4605460C46DFB19D
:101F70004B4B1B78002B4FD104EBD47406EBD67679
:101F80006410761005EBD57509EBD979B4424FEAA8
:101F900065054FEA690945D04D4509D14FF0FF333A
:101FA000C9EB0507019309E099425FD0904267D0E1
:101FB0004D45F3DA0123C5EB09070193A642CBBFD8
:101FC000C4EB0608C6EB040801234FF0FF33B84505
:101FD00000932CD94FEA5809DFF8CCB0DFF8CCA039
:101FE000C9F10009234621462A462846FFF766FE26
:101FF0009AF800309BF8000043EA0020FFF760FFEA
:10200000009BB4421C440FD019EB0709EAD4019B92
:10201000C8EB09091D44E5E7224B1B78002BABD028
:10202000B442B9D12646B7E703B0BDE8F08F7E08C9
:10203000DFF874B0DFF874A076422A4628462346BB
:102040002146FFF73BFE9AF800309BF8000043EA78
:102050000020FFF735FF019B4D451D44E4D016EBF2
:102060000806EAD4009BF61B1C44E6E7B5F5A07F02
:1020700001DAEF2C0DDD03B0BDE8F04FFFF70EBF26
:10208000B5F5A07FF7DAEF2CF5DC321BFFF7D4FBB8
:10209000F1E7C5EB0902FFF777FBECE77C29FF1FAF
:1020A0003821FF1F9C20FF1F3829FF1F4129FF1FD8
:1020B000F8B505464FF03840FEF708FE0021EF2343
:1020C00040F23F120846FFF7BFFA1A4B1A4A1B7834
:1020D0001B0443F0004343F02C0353631346DA6AB6
:1020E00002F4704112F0F00F18BF9A6BB1F5405F27
:1020F000F5D8124E104CADB2F027307845EA0040CA
:1021000040F0104040F23F116063E36A03F4704214
:1021100013F0F00F18BFA36BB2F5405FF5D801398B
:10212000F2D12846FFF764FA013FE6D1FEF720FE20
:10213000F8BD00BF602BFF1F00C002406B1EFF1FD9
:1021400090422DE9F041044617460D461E4601DD3A
:1021500014460746B54202DD2B4635461E46B4F509
:10216000A07F07DAEF2DC4EB070812DDEF2E22DD8A
:10217000BDE8F081B7F5A07F09DAEF2DF8DC761B1A
:10218000324629463846BDE8F041FFF755BBBDE869
:10219000F081424629462046FFF7F6FAEF2E0ADD87
:1021A000761B204632462946FFF746FBB7F5A07F4F
:1021B000E6DBBDE8F081424631462046FFF7E4FA0F
:1021C000EF2DEDDDBDE8F0812DE9F041904282B0C8
:1021D00004460F4601DD144602469F4202DD3946A1
:1021E0001F460B46B4F5A07F5EDAEF2F5CDCB2F53C
:1021F000A07FD4BF161BC4F5A076F02BD8BFDD1B83
:102200004FF001024FF00003294901A8C8BFC7F1F0
:10221000F005FEF729FD0198FEF758FDB9B2A0B20E
:102220004B1E421E2B4432449BB292B2FFF70CFA73
:10223000204B21491B781B0443F0004343F02C033F
:102240004B63CB6A03F4704213F0F00F18BF8B6B33
:10225000B2F5405FF5D8194A194B17781B78002D55
:1022600043EA07271EDD144C1FFA87F8012E14DD00
:10227000144B187847EA004040F010403146606344
:10228000E36A03F4704213F0F00F18BFA36BB2F5CA
:10229000405FF5D801390129F1D14046FFF7A8F98F
:1022A000013DE3D1FEF764FD02B0BDE8F08100BF5F
:1022B00080C3C901602BFF1F00C002403829FF1FE7
:1022C0004129FF1F6B1EFF1F2DE9F04F904283B085
:1022D000054616460C461F4601DD15460646BC421D
:1022E00002DD23463C461F46C5EB0608B8F1040F45
:1022F00039DDC4EB0709B9F1040F34DD05F1010A3A
:10230000BAF5A07F04F1010330D306F1FF3BBBF522
:10231000A07F32D305F1020ABAF5A07F05DAEF2CCF
:10232000A8F1040846DDEF2F3EDDB5F5A07F04F1EE
:102330000204A9F1040911DAEF2C14DC28464A46FC
:102340002146FFF779FAB6F5A07F0CDA4A46214616
:10235000304603B0BDE8F04FFFF76EBAB6F5A07F88
:1023600001DAEF2CF2DD03B0BDE8F08FEF2B2CD9B2
:1023700006F1FF3BBBF5A07F2ED2EF2B20D9BAF59B
:10238000A07F07F1FF330CD2EF2BC3D8194650467C
:102390000193FFF7C5F9019B19465846FFF7C0F9AD
:1023A000B8E7EF2BB6D8F7E7424639465046FFF775
:1023B000EBF9BAE7424621465046FFF7E5F9B2E7A6
:1023C00019465846FFF7ACF9D9E71946504601932C
:1023D000FFF7A6F9019BCBE7791EEF299AD8504663
:1023E000FFF79EF996E700BF2DE9F04F904285B0C8
:1023F00006460F469B4601DD164602465F4502DD56
:1024000039465F468B46951B042D34DDC7EB0B0820
:10241000B8F1040F2FDD7B1C00930BF1FF33019308
:10242000AB1E02932B1F4FEA680806F1020A06F161
:102430000109002403930CBBBAF5A07F04DAEF2F47
:102440001FDDBBF1EF0F24DDB9F5A07F05DA009B9E
:10245000EF2B34DD019BEF2B2BDD0224B6F5A07FA3
:1024600006DA3919EF291FDDC4EB0B01EF2916DD60
:1024700001344445DFDD05B0BDE8F08F012CE3D029
:10248000ECE7039A39465046FFF77EF9BBF1EF0FB0
:10249000DADC039A59465046FFF776F9D4E72A4624
:1024A0003046FFF771F9E3E72A463046FFF76CF94B
:1024B000DAE71946029A4846FFF766F9CDE7029A2D
:1024C00019464846FFF760F9C4E700BF2DE9F04F11
:1024D000834B8BB01B7809900391924693B1814B4B
:1024E0001B78002B40F0F680099B03EBD371039B14
:1024F00003EBD37249100AEBDA735210099103927D
:102500004FEA630A039FDDF82480774C774D07EB91
:102510000A094FEA4A0649464B4642464046764239
:102520000896FFF7CBFB2B782078CAEB070243EA2B
:1025300000203E4607921746FFF7C2FC4246394646
:1025400010463B46FFF7BAFB2B78207808EB0A0BC6
:1025500043EA0020FFF7B4FC5A465846334631465A
:10256000FFF7ACFB2B782078CAEB08010F4643EA53
:1025700000200691FFF7A4FC3A4638463346314620
:10258000FFF79CFB2B78207843EA0020CAF1010377
:102590000193FFF795FCBAF1000F40F396800127F5
:1025A000CDF80890099904977E0001EB0709C6EB66
:1025B00009030093039B03EB0708C6EB080306F12E
:1025C000010E019E0593002E4A46484607F1010779
:1025D00013DB089B02331E440893039B01960AF108
:1025E000FF3A03EB0A06CAEB030302960793019E28
:1025F000CAEB010301EB0A0B0693029976440B46E2
:102600000196FFF75BFB2B78207843EA0020FFF769
:1026100057FC029900980B460246FFF74FFB2B78B8
:10262000207843EA0020FFF74BFC079E4A463146DC
:1026300033464846FFF742FB2B78207843EA0020D8
:10264000FFF73EFC009A314610463346FFF736FB53
:102650002B78207843EA0020FFF732FC41464346BE
:102660005A465846FFF72AFB2B78207843EA002089
:10267000FFF726FC069E4146434632463046FFF7AA
:102680001DFB2B78207843EA0020FFF719FCDDF8CA
:1026900014805A46414643465846FFF70FFB2B78B5
:1026A000207843EA0020FFF70BFC434632464146C0
:1026B0003046FFF703FB2B78207843EA0020FFF732
:1026C000FFFB049B9A453FF76DAF0BB0BDE8F04FA1
:1026D000FFF7E4BB064B1B78002B7FF413AF03E737
:1026E0007C29FF1F3821FF1F3829FF1F4129FF1FA9
:1026F0009C20FF1F2DE9F04FDFF8A0928BB099F8D6
:10270000003003910546029273B1944B1B78002B65
:1027100040F01E81039B03EBD372029B03EBD37348
:1027200052105B10039202938D4B1A78002A5ED1EF
:102730008C4BDFF860A21C78002C00F033819AF8F3
:1027400004109AF805009AF80640CB0813FB00F035
:102750002C1B00FB04F404340094002842D0DFF862
:102760004092DFF82C8201920398019AB2FBF3F3B6
:102770000A1802990B441946013AFFF79FFA9AF892
:102780000410CB085D1E0BB3774F784EDAF800309B
:102790005A19009BD45C4FF0000B44FA0BF3D90795
:1027A00047BF98F80000337899F800003B780BF1A8
:1027B000010B43EA0020FFF783FBBBF1080FECD1CC
:1027C00015F1FF35E2D29AF80410CB0801989AF877
:1027D0000520009C184403FB02F21C448242019035
:1027E0000094C1D80BB0BDE8F04FFFF757BBDFF83E
:1027F000A4A19AF804309AF805109AF80600DB08AC
:1028000003FB01F22D1A02FB05F52A1D0592002992
:10281000E8D0029ACDF818A002F1010B03F0FF02F4
:10282000002B00F08980039B0093C3F1EE0301931A
:1028300000230BF1FF3A0493069B059A1B68019F46
:10284000009D1344049A072413F8028013E099F8BA
:1028500000005B4632465146D8B1454B454A198087
:10286000158048FA04F3DA0746D4013C631C354668
:1028700007F1FF374ED03B4B1B78012B05F10106CA
:10288000E5D199F800007B1C5A4639465546002888
:10289000E3D14FF03840099208910793FEF716FAFA
:1028A000079B099A08999BB292B289B2A8B2FEF727
:1028B000CBFE2C20FEF744FE2F4B1B78002BD0D0F4
:1028C000DA0703D52D492E4A096811609D0703D503
:1028D0002A4A2C4952680A60580703D5274A2A49D0
:1028E00092680A601907BCD5244B284ADB6813603C
:1028F00048FA04F3DA07B8D5254A1C4B10781B7840
:10290000013C43EA0020FFF7DBFA631C354607F180
:10291000FF37B0D1069B009C049A1B791D490834EF
:102920000132DB080094019C04921046DAB2083CA4
:102930008242019480DC49790298059CC0EB0B002F
:102940001444814205940BF1010B3FF667AF49E750
:10295000114B1B78002B7FF4E7AEDBE63821FF1F1D
:10296000521EFF1F2421FF1F2428FF1F4129FF1F84
:10297000D228FF1FD028FF1F302CFF1F202CFF1F45
:1029800000E100E004E100E008E100E00CE100E02B
:102990003829FF1F1C21FF1F9C20FF1F7C29FF1FC0
:1029A0007E27FF1F9AF805309AF8042002990398B1
:1029B0000B440244013B013AFFF780F99AF80420E6
:1029C0009AF805309AF80690D20812FB03F3C9EB87
:1029D000050903FB09F909F10409002B3FF402AFD3
:1029E000DFF86880164F174E174D0094DAF8003064
:1029F00013F809404FF0070B44FA0BF2D00747BF1A
:102A000030782A7898F800003A7842EA0020FFF7F8
:102A100057FA1BF1FF3BEFD29AF8042000999AF87D
:102A20000530D208013112FB03F38B42009109F10A
:102A30000109DBD80BB0BDE8F04FFFF72FBA00BF9C
:102A40002428FF1F3829FF1F4129FF1F7E27FF1F52
:102A5000174BF0B41B6804331A780A705C784C602A
:102A60009E788E60DD78CD601C797F2CC8BFC4F560
:102A700080740C619F1D82425B794B610BD0FF2AF1
:102A800012D016FB05F56EB16B1E48BFAB1D07EBF0
:102A9000E3030133E0E7B2F1FF0018BF01208F61CB
:102AA000F0BC70473B46D7E700208F61F0BC704711
:102AB0001C21FF1F2DE9F04F8BB08B4603A901921B
:102AC000FFF7C6FF00284FD0354C364D364B2178E6
:102AD0002A781B7842EA01220092002B47D0059BFE
:102AE000002B40D0069A002A3DDD4FF00008099FD8
:102AF000C14646468025002B2EDD019A00210C465A
:102B000002EB080A09E02A4616424FEA550510D1A1
:102B10000134E4B29C4221461DDA03FB081252073D
:102B2000F1D13E78802216424FF0400507F10107AF
:102B3000EED0079A049B5A440A445344194610465F
:102B4000FFF7BCF80098FFF7BBF90134059BE4B22E
:102B50009C422146E1DB069A09F101095FFA89F9F5
:102B60009145C846C7DB08980BB0BDE8F08F0F4908
:102B70000F4B0978089A5B790E4821700199067805
:102B80002E705A440B4401325846FFF71DFB009A41
:102B90002A70130A2370059B002BA3D1E3E700BF23
:102BA0003829FF1F4129FF1F521EFF1F7E27FF1FCD
:102BB0001C21FF1F2428FF1F2DE9F04F2DED068B50
:102BC0008BB009EE101A03A9994609EE902AFFF777
:102BD0003FFF002879D0059A002A73D0DDED1A7ADC
:102BE0009FED4E7A0192F8EEE77A67EE877A17EE5C
:102BF000900A24F071FF41EC100B41EC1A0B23F00A
:102C00009FFA51EC100B25F093FAB0EE4A0AF0EE61
:102C10006A0A08EE100A23F0F3FA51EC100B25F0C3
:102C200087FA069B002B08EE900A4BDD3C483D4995
:102C300090F800B00978DDF82480DFF8F4A0019A5C
:102C4000002541EA0B2B2F468026002A37DDF8EEBF
:102C5000C9AAB8EEE9AA002425E031467608049B0B
:102C6000EB1806EE903A04EB090307EE903AF8EE03
:102C7000E66AB8EEE76A66EEE87A28EE867AE8EE6B
:102C8000067A0F42A8EE267A77EEAA7A37EE0A7A0B
:102C9000FDEEE77ABDEEC77A1CD19AF8003043B357
:102CA000013494420ADA02FB05435B07D5D198F858
:102CB0000070402608F101088021D0E7069B01350D
:102CC0009D42C2DBFFF7EAF808980BB0BDEC068B1B
:102CD000BDE8F08F17EE902A17EE900A17EE103A23
:102CE00017EE101AFEF7EAFF5846FFF7E9F8059AC3
:102CF000D6E717EE103A17EE902A17EE900A17EE65
:102D0000101AFEF7DBFF084B1878084B1B7843EAD4
:102D10000020FFF7D5F8059AC2E700BF295C8F3C79
:102D20003829FF1F4129FF1F7E27FF1F2428FF1F6F
:102D3000521EFF1F2DE9F04F2DED028B95B0DDEDFA
:102D4000207A9FED5E7ADFF888811392F8EEE77AB9
:102D5000044667EE877A0E9317EE900A129124F0DC
:102D6000BBFE98F8046041EC180B98F8060098F840
:102D70000510F30803FB01F2201A02FB00F0021D0C
:102D80001092002900F0A3824D4A92F800B0002270
:102D9000119203F0FF02002B00F09281129824F0B0
:102DA00089FEB0EE480AF0EE680ACDE9020123F090
:102DB000C7F911985AEC109B8DED040B24F07AFEA4
:102DC000B0EE480AF0EE680A04460D4623F018FA01
:102DD000204653EC102B29468DED060B24F0D0FE37
:102DE000CDE90801139824F065FE2B46CDE90A01D0
:102DF00022465146484624F0C3FECDE90C0100238B
:102E0000DFF8D0A00F93D8F80030109A0F99134430
:102E10004FEAC1095B5C019309F1070907253046B8
:102E20000E9AC5EB090302FB003024F043FEDDE9F6
:102E3000042306460F4624F0A3FEDDE9082324F010
:102E4000EBFCDDE9022324F0E9FC25F049F9DDE99A
:102E5000062304463946304624F092FEDDE90C2371
:102E600024F0DCFCDDE90A2324F0D8FC25F038F955
:102E7000BBF1010F00F1010304F101022CD09AF81B
:102E80000010002933D0019B0E4A0F4E2B41A4B2F3
:102E900080B2DB071480308000F1EB800B4B1B7895
:102EA000002B00F02781064B93F800B015F1FF3599
:102EB000C0F0F98098F80400B2E700BF295C8F3CAD
:102EC0002421FF1FD028FF1FD228FF1F521EFF1FE3
:102ED0001C21FF1F7C29FF1FC2F1EF011A46C4F11C
:102EE000EF03044608469AF800100029CBD1964912
:102EF0000978002930D072B693490978CE070BD5EE
:102F0000924F934ED7F800C03668DFF85CE20CEAC7
:102F10000606CEF800603E608F070BD58D4F8C4EB5
:102F2000D7F800C07668DFF840E20CEA06063E609B
:102F3000CEF804604E070BD5874F854ED7F800C0FA
:102F4000B668DFF824E20CEA06063E60CEF80860B8
:102F50000F0700F16D8162B68049CE68B6F1384F37
:102F600009D07F4F0F604FF03847CF607D4E4FF054
:102F700078470F610E609BB292B281B2A0B2FEF7A9
:102F800063FB2C20FEF7DCFA6F4B1A78A2B1D60750
:102F900003D57549754B09681960940703D5724BC1
:102FA00073495B680B60500700F13D81110703D541
:102FB0006D4B7049DB680B60019B2B41DF0700F113
:102FC000F1806D4B1B78002B7FF46DAF6B4A6C4B1F
:102FD00010781A789AF8003042EA0020002B40F06E
:102FE0008881594B1B78002B2CD072B6564B1B781E
:102FF000DA0707D55549564A0E6812685A4C3240CE
:1030000022600A609F0707D55249514A0E685268EC
:10301000554C32400A6062605E0707D54E494C4A03
:103020000E689268504C32400A60A2601C0708D5B6
:10303000544A474B1168DB684B4A0B4051490B60BF
:10304000D36062B6454BDA68B2F1384F09D04449D3
:1030500019604FF03841D960424A4FF07841196108
:103060001A60FEF7C5FA384B1B78002B40F0BE8083
:1030700019E7454A454B12781B7843EA0223444A34
:103080001278012A00EB80004ED004EB4014B4F516
:10309000964FBFF60BAF3F4A126815F1FF3522F885
:1030A0001430BFF407AF0F9A98F804603A49013220
:1030B000F30810460F92DAB282423FF7A4AE497984
:1030C0001198109C0130C0B21444884211901094A1
:1030D000FFF45FAEBBF1000F00F0FD800021084659
:1030E00040F23F13EF2215B0BDEC028BBDE8F04F6C
:1030F000FEF7E4BD2149224B08781B7843EA002003
:10310000234B1B78012B00F0CB803388128803EB14
:10311000830302EB4313B3F5964FBFF6C4AE1D4ACB
:10312000126822F81300BEE61C4A1278002AACD0BE
:1031300004EB8014B4F5963FBFF6B8AE184A126897
:1031400022F81430B2E600BF302CFF1F80E100E00F
:10315000102CFF1F84E100E088E100E000C0024085
:1031600001401F0000001F80202CFF1F00E100E035
:1031700004E100E00CE100E0521EFF1F7E27FF1F6C
:103180002428FF1F8CE100E03829FF1F4129FF1F81
:103190003821FF1F3C1EFF1F1C21FF1F9C20FF1F0B
:1031A000481EFF1F5449554B08781B789AF80010A9
:1031B00043EA0023002940F09480002A42D1504A7B
:1031C000D168B1F1384F09D04E4810604FF0384007
:1031D000D0604D494FF07840106111601846FEF7FD
:1031E00007FA4A4B1B78002B3FF45DAED80703D596
:1031F0004749484A09681160990703D5444A464936
:1032000052680A605A0703D5414A444992680A60E5
:103210001B077FF548AE3E4B414ADB681360414BCC
:1032200093F800B042E63A4B3C499B680B60BDE620
:103230003D4E3E493768C968354E39403A4F39608E
:10324000F16088E672B6314A1278D60707D5384859
:103250003649066809682E4C3140216001609407A8
:1032600007D53448314906684968294C3140016026
:103270006160500707D530482C4906688968244C9E
:1032800031400160A160110708D52749274A086825
:10329000D2681F49024024480260CA6062B68EE7C5
:1032A000264B1B78002B3FF430AF3388128803EB9A
:1032B000830302EB8313B3F5963FBFF6F4AD204AC8
:1032C000126822F81300174B93F800B0EEE5154B87
:1032D00093F800B0FEE6EF2340F23F1259465846FD
:1032E00001E7184A184E14880E4A308892F800B048
:1032F000C5E6144A144E03E73829FF1F4129FF1F72
:1033000000C0024001401F0000001F80302CFF1F42
:10331000202CFF1F00E100E004E100E008E100E0F4
:103320000CE100E02421FF1F8CE100E0102CFF1FC6
:1033300080E100E084E100E088E100E09C20FF1FE4
:10334000481EFF1FD028FF1FD228FF1F2DE9F04F76
:1033500083B09A460D461646044626F071F8584B3F
:103360001B7807464BB1574B1B78002B75D105EBEB
:10337000D57506EBD6766D107610534B1B78C3BB14
:1033800042F20F739D4200F08D8042F20E739D4217
:103390006ED0002F2ADDBAF1000F3ED04FF00009A9
:1033A000DFF82C810134CB460CE014F8010CCDF889
:1033B00000A05B460BF1010BFFF7BCFC5F4504F17D
:1033C000010413D098F804004B46324629460028E1
:1033D000EBD114F8010CCDF800A0FFF7EDFB0BF1D9
:1033E000010B5F45814404F10104EBD103B0BDE85A
:1033F000F08F42F20F739D4246D042F20E739D420F
:10340000C7D1DFF8CC8098F8045007FB05F5C5F16B
:10341000F00505EBD5756D10BBE7DFF8B48001371B
:103420002744C146013408E014F8010CFFF742FBC1
:10343000013005440134A742D8D098F80430294619
:103440003246002BF0D02946324614F8010CFFF723
:1034500051F999F804301D44ECE71C4B1B78002B04
:103460008BD105EBD57506EBD6766D10761084E71B
:10347000DFF85C8098F8045007FB05F5C5F5A075EA
:1034800005EBD5756D1084E7DFF8448098F804509B
:1034900007FB05F5C5F1F00542F20E739D427FF47E
:1034A00078AFAEE7DFF8288098F8045007FB05F501
:1034B000C5F5A07542F20E739D427FF46AAFD7E75F
:1034C0007C29FF1F3821FF1F2421FF1F9C20FF1F85
:1034D0001C21FF1F2DE9F047294C2A4F208B618BBF
:1034E000A28BE38B3D68DFF8B880DFF8B890024428
:1034F0000B442E0A033A0330033B033188F8006083
:1035000089F80050FEF760FE1F4A204B12681A60CF
:1035100092F800A083F804A055781D495D71907859
:103520000968666A9871D27889F800103046090AED
:10353000DA7188F8001025F083FFA18B238BB4F893
:103540001EE03F68628B03EB51036D0800FB0AF03D
:10355000C5EB5E05A3EB50017B1C2A440DD00D4842
:103560000D4B3C0A04701F7000250C4C3046257032
:103570000023BDE8F047FFF7E9BE0125F5E700BFEE
:103580008029FF1F2821FF1F2C28FF1F1C21FF1F40
:10359000642BFF1F7E27FF1F2428FF1F521EFF1FC3
:1035A0003829FF1F4129FF1F2DE9F04F294CDFF873
:1035B000B88020886188A288E388DFF8B090024450
:1035C0000B4481B0BE277F26033A0330033B03310F
:1035D00088F8007089F80060FEF7F6FD1E4A1F4B60
:1035E00012681A6092F800B083F804B055781C494C
:1035F0005D719078D4F80CA009689871D27889F838
:1036000000105046090A88F80010DA7125F018FFFA
:10361000B4F806C0B4F804E02388628800FB0BF11C
:103620006D081048C5EB5C0503EB5E030024DFF872
:1036300040C0DFF840E00770A3EB510150462A4438
:1036400023468CF800608EF8004001B0BDE8F04FD2
:10365000FFF77CBE8029FF1F2C28FF1F1C21FF1FA6
:10366000642BFF1F7E27FF1F3829FF1F4129FF1FE3
:103670002428FF1F521EFF1FF8B505464CF659605F
:10368000FEF716FD144B154C1878207128465D780E
:10369000657123609D78124EDB781249124AA5713C
:1036A000E3710025CE2333700D70104F104E3D7026
:1036B000592111702B46192242F20E713570FFF715
:1036C00045FE0C4B2360187859789A78DB78E371C3
:1036D00020716171A271F8BDACC703001C21FF1FEE
:1036E0007E27FF1F521EFF1F2428FF1F3829FF1FA0
:1036F0004129FF1F90D303002DE9F04706211F4FFA
:103700001F4E204D204C82464FF0CE0908464FF008
:103710005908EA234FF49D7287F8009086F80080DC
:10372000FEF762FE194BDFF870E083F8009000228C
:103730008EF8008095F800C095F801E014493A70C1
:10374000AF783270EE780A7013465046192242F272
:103750000E7184F804C0256084F805E0A771E67155
:10376000FFF7F4FD0B4B2360187859789A78DB78D3
:10377000E37120716171A271BDE8F0873829FF1FE4
:103780004129FF1FACC703001C21FF1F7E27FF1F1D
:10379000521EFF1F90D303002428FF1F2DE9F0477E
:1037A0008EB000280E46174698469DF858101CD13A
:1037B000002B6ED0012B74DD5C1E0DF11C0922461E
:1037C000484625F073F90EAB1819984430220023AF
:1037D00000F81C2C08F81C3C3A46314648460023A9
:1037E000FFF7B4FD0EB0BDE8F087B4BF012500259A
:1037F000DFF8BCE0B8BF4042AC460DF1FF33002417
:103800008EFB0029C217C2EBA90202EB8202A0EBD9
:103810004202801A8EFB00A9C0173032D0EBA900FB
:1038200004F1010403F8012FEAD10EAB234403F89D
:10383000380CBCF1000F02D02D238DF81C3004EBA6
:10384000050AD04516DC4FF000080DF11C0905EB08
:103850000803013B69464B446C4414F8012D03F8FE
:10386000012FA142F9D10EAB9844C24400230AF8BB
:103870001C3CB1E7C4EB0808C5EB0808B8F1000F21
:10388000E1DD0DF11C0909EB0500424625F00EF9BA
:10389000DDE730238DF81D808DF81C300DF11C09FB
:1038A0009AE704464FF001080DF11C098BE700BFB1
:1038B000676666662DE9F84304460F461646984645
:1038C0004FF03840DDF82090099DFDF7FFF9B9B2BF
:1038D000A0B208F1FF33721E0B4402449BB292B2B5
:1038E000FDF7B2FE604B61491B781B0443F00043B7
:1038F00043F02C034B63CB6A03F4704213F0F00FD8
:1039000018BF8B6BB2F5405FF5D8B8F1000F40F3EC
:10391000A680574F554C3878042E49464FEA004050
:1039200054DDB6460B789B0935F81330034343F05A
:1039300010436363E36A03F4704213F0F00F18BF9F
:10394000A36BB2F5405FF5D80B78C3F3011335F8DC
:103950001330034343F010436363E36A03F470429C
:1039600013F0F00F18BFA36BB2F5405FF5D80B78DA
:10397000C3F3810335F81330034343F0104363630B
:10398000E36A03F4704213F0F00F18BFA36BB2F5B3
:10399000405FF5D811F8013B03F0030335F813300D
:1039A000034343F010436363E36A03F4704213F08C
:1039B000F00F18BFA36BB2F5405FF5D8AEF1040E5F
:1039C0001FFA8EF3042B0FFA83FEABD80B789B09FA
:1039D00035F81330034343F010436363E36A03F4A1
:1039E000704213F0F00F18BFA36BB2F5405FF5D82B
:1039F0000B78C3F3011335F81330034343F010433E
:103A00006363E36A03F4704213F0F00F18BFA36B13
:103A1000B2F5405FF5D80B78C3F3810335F8133066
:103A2000034343F010436363E36A03F4704213F00B
:103A3000F00F18BFA36BB2F5405FF5D80B7803F019
:103A4000030301F1010935F81300FDF7D1FD08F179
:103A5000FF339BB20FFA83F8002B7FF45CAFFDF7C6
:103A600087F9BDE8F88300BF602BFF1F00C002404C
:103A70006B1EFF1F2DE9F84304460F461646984675
:103A80004FF03840DDF82090099DFDF71FF9B9B2DD
:103A9000A0B208F1FF33721E0B4402449BB292B2F3
:103AA000FDF7D2FD394B3A491B781B0443F0004324
:103AB00043F02C034B63CB6A03F4704213F0F00F16
:103AC00018BF8B6BB2F5405FF5D8B8F1000F58DD29
:103AD000304F2F4C3878022E49464FEA00402EDDF9
:103AE000B6460B781B0935F81330034343F01043F7
:103AF0006363E36A03F4704213F0F00F18BFA36B23
:103B0000B2F5405FF5D811F8013B03F00F0335F82B
:103B10001330034343F010436363E36A03F47042DA
:103B200013F0F00F18BFA36BB2F5405FF5D8AEF1FC
:103B3000020E1FFA8EF3022B0FFA83FED1D80B78F8
:103B40001B0935F81330034343F010436363E36A02
:103B500003F4704213F0F00F18BFA36BB2F5405F8F
:103B6000F5D80B7803F00F0301F1010935F81300C4
:103B7000FDF73EFD08F1FF339BB20FFA83F8002BEF
:103B8000A8D1FDF7F5F8BDE8F88300BF602BFF1F53
:103B900000C002406B1EFF1F00B5124B1B7883B0A4
:103BA0003BB11149114B4FF480704FF41072086013
:103BB0001A600F4B1B781BB90E4A1278012A09D0E4
:103BC0000D48FDF783F800210F201DF0D9FB03B04D
:103BD0005DF804FB094901A8FDF746F80198FDF7D7
:103BE00075F8F0E7622BFF1F14B0044004C00440D6
:103BF0003821FF1FCD28FF1F000001BA80C3C90173
:103C00002DE9F04F00F001024308960003EB830317
:103C100016445A0187B002EB0612C2F59556DFF83A
:103C200080E15B4F019605921646C2F5155202924D
:103C30009EF8008097F800A0029A564C564B94F8D4
:103C400000901C68554BC6F59547C6F5605E019E11
:103C500004970139009106F11F0100EB80050191E5
:103C60001146049AAD013F31C5F595477F3200EB0F
:103C7000800B02910EF13F0104926E4203914FEAD4
:103C80004B1B7F37A03500221AE0B9F1000F25D079
:103C900002EB0B0104EB810E24F8210004EB45013B
:103CA000AEF8020024F8150048800132502A03F1D2
:103CB0000203A7F10207A6F1020605F1020535D0BD
:103CC0001879597951EA002031D0B8F1010F1DD08F
:103CD000BAF1000FD9D1B9F1000FD9D002EB0B0125
:103CE000A1F515513F3906F5944C06F5944EC1EBFC
:103CF00081710CF15F0C0EF15E0E24F8170024F8B0
:103D0000210024F81C0024F81E00CEE70099B9F128
:103D1000000F05D10329C8D8DFE801F035302B2684
:103D20000329C2D8DFE801F01B140D06012007B0FB
:103D3000BDE8F08F0599511801F5615124F8110083
:103D4000B3E70599511801F5165124F81100ACE7B5
:103D50000599511801F5965124F81100A5E7059928
:103D6000511824F81100A0E70199891A24F81100CC
:103D70009BE70299891A24F8110096E70399891A9A
:103D800024F8110091E70499891A24F811008CE7AE
:103D9000622BFF1F1629FF1F3C1EFF1F8027FF1FDE
:103DA000CD28FF1F2DE9F04F9B4B9C4D1B7883B016
:103DB000012B0CBF042301230193FFF7EDFE012328
:103DC0002C4600934FF00008B8F1FF0F00F08280FE
:103DD000934F4FF0010B07F1A3064FF0000A2B6839
:103DE00039788F4F4FF0004243F480632B601046C8
:103DF000EA625FFA8AF93A466963BE465178EB6A2D
:103E0000002BFCDAA76B236843F480632360E06235
:103E1000616302F8017BB242F0D17746EB6A002B76
:103E2000FCDA3B78A26B87F8A32003F00F020F2A7D
:103E30007B4902D04A784A452DD01DF00FFB08F18E
:103E400001085FFA88F8064600E000BF1DF006FB97
:103E5000801BB0F5487FF8D3B9F13C0FB4D1009B7B
:103E6000019A03F1010A5FFA8AF39A420093A9D2F8
:103E70006C4B01221A60FCF77BFF6B4B1B783BB14C
:103E80006A496B4B4FF410704FF4807208601A60EF
:103E900003B0BDE8F08FB9F1140F0FD00099484678
:103EA000FFF7AEFE0028C8D0BBF13C0FD7D00BF116
:103EB000010B5FFA8BFB0AF1010A90E7564A127870
:103EC000012A00F0908000991420FFF799FE002845
:103ED000EDD1B2E7574B1B78DBB2012B00F08B80A2
:103EE000504A554E012313603378BBB1D80703D530
:103EF0005249534A09681160990703D54F49514AFD
:103F0000496811605A0703D54C494F4A89681160C6
:103F10001F0703D5494A4D4BD2681A60424B1B78A4
:103F20003BB1424A424B4FF4107111604FF4807222
:103F30001A60BA201DF0B6FA3B4B1B783BB13B4AE6
:103F40003B4B4FF4807111604FF410721A60404B7C
:103F50001B781BB9304B1B78012B58D03278364B6D
:103F6000002A2CD072B61B78D80707D539493A4AAF
:103F70000E6812683148324002600A60990707D51E
:103F80003649354A0E6852682C4832400A60426011
:103F90005A0708D53249304A0868926827490240D2
:103FA0002F4802608A601B0708D52E4A2A4B1168E9
:103FB000DB68224A0B402B490B60D36062B6EA688B
:103FC000294B9A4206D0294A2A602949294AEB609E
:103FD00029612A6000210F201DF0D2F901230093EE
:103FE0004FF00008F4E61B113FF427AF009A9A4205
:103FF0007FF423AF67E70B4A1360FCF7B9FE0A4B67
:104000001B78002B7FF43CAF03B0BDE8F08F4FF07E
:104010003840FCF75BFEDDE7CD28FF1F00C0024003
:104020008027FF1F84F00F40622BFF1F14B0044055
:1040300004C004407820FF1F302CFF1F202CFF1FDE
:1040400000E100E004E100E008E100E00CE100E054
:104050003821FF1F80E100E0102CFF1F84E100E009
:1040600088E100E08CE100E0000001BA01401F009F
:10407000000001FA00001F8070B52149214B224C3D
:104080004FF480704FF4107208601A6004F26C41B3
:1040900004F58C60022314221AF048FD78B91A48FE
:1040A0001AF05EFA2379174A154C5B084FF4107525
:1040B0004FF48071256000FB03F0116070BD04F2C5
:1040C0003C4018F06BFB012120461AF0E3FA80B166
:1040D0000D4D05F23C463046294618F025FD0028D6
:1040E000DDD095F83C3413F0700F1CBF074B1E60F9
:1040F000D5E7014620461AF0CDFA0028E8D1CEE7F0
:1041000014B0044004C004400C23FF1F082CFF1F00
:104110002DE9F041214F224D22484FF480764FF493
:1041200010783E608CB0C5F800801BF0C9F81E4BBB
:1041300000F2FF74C4F3CF241860C7F800802E602B
:1041400044B3FFF799FF0A22810A68461FF09CF9E1
:10415000694604A81FF002F9144904A81FF090FA58
:104160000A220546611E08A81FF08EF908A92846F4
:104170001FF046FA0E491FF083FA01460D481FF062
:10418000C9F908A81FF0BEF904A81FF0BBF96846DA
:104190001FF0B8F90CB0BDE8F08100BF14B00440C6
:1041A00004C004406C27FF1F3C29FF1F7CF2020063
:1041B00080F20200D828FF1F38B51D481D4B1E494C
:1041C0004FF410724FF4807404601A60A1F10C0077
:1041D000022314221AF0AAFC48B900201449154BF6
:1041E0004FF410744FF480720C601A6038BD13489D
:1041F00018F0D4FA012112481AF04CFA88B1104C88
:1042000004F23C452846214618F08EFC0028E4D0F4
:1042100094F83C3413F0700316BF0A4B18461D6027
:10422000DCE7014606481AF035FA0028E7D1D4E762
:1042300014B0044004C004407827FF1F4827FF1F24
:104240000C23FF1F082CFF1FF8B5344C4FF40072ED
:104250000021204624F02AFC314A324832490078B5
:104260000968324B12781E68B1FBF0F512FB00F2C0
:1042700000FB1515B1FBF2F39F080135DFF8B4E040
:1042800084F8C13107F0C00765F30507AA259EF839
:1042900000E084F8FF518D19013D84F8C07184F865
:1042A000C2E1B5FBF2F71FFA87FE4FF0550CBEF5E1
:1042B000806F02FB131384F8FEC1B3FBF0F384F8A4
:1042C000BF3112D3FF20FE2284F8C50184F8C32138
:1042D00084F8C401C4F8C611C4F8CA610F4A14486E
:1042E0000021BDE8F8401BF0A9B894F8C431B5FB33
:1042F000F0FE4FEA272C00FB1E5E0EF1010E6CF360
:1043000087136EF3050302FB175284F8C571B2FBE5
:10431000F0F084F8C43184F8C301DBE7701EFF1F9E
:104320005A1EFF1F6129FF1F8820FF1FE422FF1F65
:104330006C27FF1F5B1EFF1F2DE9F04F7A4E7B4B52
:10434000D6F800E01D78DFF80C82DFF80CA2AEF59D
:104350008070B0FBF5F000F20112120A54004FF425
:10436000807104F1A1078F42C8F8002083B0CAF819
:10437000001088BF4FF4C07201D8D2E06246C2EB91
:104380000E00B0FBF5F000F20111090A4C0004F137
:10439000A107974202F1800CF0D8CAF80020C8F8B3
:1043A0000010D21B04F12101DFF8B091604C614F85
:1043B000DFF8ACB100FB051002F18005C9F8005030
:1043C00047F6A77581320121A84220603A60ABF818
:1043D000001000F29E80584A1170584D0193FFF76B
:1043E00033FF4FF400720021284624F05FFB019B4D
:1043F000BBF800E052492268A5F80EE055244FF0C2
:10440000AA0E504893F800C00978D8F800302A6204
:1044100085F8FE41EB22902485F8FFE14FF0F80E7D
:10442000007885F80DC02A704FF0290C8022AC70FE
:1044300085F815E000244FF0203EEB8269830223CB
:10444000D9F80010C5F803E0C5F807E0E96185F880
:10445000242085F826C02B732B74AB742883EC7250
:104460006C7436681CF0FAFF374B384A3602064443
:1044700003CBC5F82B00C5F82F1003CAB3F800C052
:104480009B78C5F83600C5F83A102A46D9F80010CE
:10449000C5F82760A5F833C085F835302C481AF0E8
:1044A000CDFFD7F80090DAF800602146C9EB060688
:1044B0004FF40072284624F0F9FA3246494624485F
:1044C0001BF094F936B101341C4921481BF0B0F8B7
:1044D000A642F8D11E481BF0EBF94FF40072002100
:1044E000164824F0E3FA4FF6F8744FF6FF73396874
:1044F000124A17486B802C801AF0A0FF3968D8F850
:1045000000300E4A1248194403B0BDE8F04F1AF0CB
:1045100095BFB0F5803F084A34BF042106211170D1
:104520005BE70A463DE700BF3C29FF1F3729FF1F15
:10453000E422FF1FEC22FF1F5B1EFF1F701EFF1FE8
:104540005A1EFF1F6129FF1F2408FF1F4008FF1F7D
:104550006C27FF1F441EFF1F4021FF1F8820FF1FE5
:104560003C28FF1F2DE9F04F974CDFF88C92D4F8D0
:1045700000C099F800E0954F954EDFF88082ACF5C9
:104580008041B1FBFEF101F18103DB095D0005F51E
:10459000005A4FF480400AF1090A4FF40052824554
:1045A00083B03B603260C8F8000040F20B814FF4EA
:1045B000C04000E05046C0EB0C01B1FBFEF101F140
:1045C0008103DB095D0005F500520932824200F5E6
:1045D000005AEFD8A0F500523B60C8F8000093B233
:1045E000DFF81CB27B4ADFF81CA2DFF81C825D1BDF
:1045F00001FB0E01ABB27848784DABF80030914228
:104600008CBF0C220B2203F50053A1F50051C8F812
:104610000030CAF800100270FFF716FE4FF4007267
:104620000021284624F042FA2268BBF80040DAF85C
:1046300000306B486B49EC81EB242B622C7090238B
:10464000F82499F800C090F800E0AB7008783B6857
:1046500031686C75062485F80DC0A5F818E04FF098
:10466000010C4FF0800E6883E96129204FF0203162
:104670006B626C8602230024A5F830C012024FF052
:10468000550B4FF0AA0A85F840E0C5F80310C5F8AD
:1046900007102B732B74EB6285F84200EC720192C9
:1046A00085F8FEB185F8FFA11CF0D8FE019A4E4BAB
:1046B000DFF858E1024403CBC5F84700C5F84B10BA
:1046C000BEE80300B3F800E09B78A5F84FE085F85A
:1046D0005130C5F84320C5F85200C5F856102A4697
:1046E000316842481AF0AAFE316840482A4606312D
:1046F0001AF0A4FE21464FF40072284624F0D6F9A1
:1047000031683A4885F8FEB12A46023185F8FFA1A2
:104710001AF094FE316835482A4608311AF08EFEA8
:104720003168334BDFF8E8E02B604FF0FF33C5F81A
:10473000E4E1C5F8E831C5F8EC312A4601312B48EF
:104740001AF07CFE3168294807312A461AF076FEB5
:1047500099F800303E68D8F8009003EB46062146F1
:104760004FF40072284624F0A1F9324649461F480A
:104770001BF03CF836B1013418491C481AF058FFB8
:10478000A642F8D119481BF093F84FF400720021AB
:10479000124824F08BF9174BD8F800102B600F4A01
:1047A00012486FF070436B60AB601AF047FED8F8A8
:1047B00000103B68094A0D48194403B0BDE8F04FAA
:1047C0001AF03CBE13460BE73C29FF1F441EFF1F97
:1047D0008820FF1F0004FB005B1EFF1F701EFF1FD1
:1047E0006129FF1F5A1EFF1F2408FF1F6C27FF1F90
:1047F00052526141F8FFFF0F3729FF1F4021FF1F71
:104800003C28FF1FE422FF1FEC22FF1F3408FF1F7C
:10481000727241613D4B3E493E4810B54FF41072F3
:104820004FF480740C601A601AF04AFD3A4A3B4B10
:10483000106000F2FF70C0F3CF201028188015D848
:10484000374C3848384A02232021237003701170F6
:10485000364B1B78DBB1FFF785FE2D492B4B4FF410
:1048600010704FF4807208601A6010BD20282C4B25
:1048700010D804221A7020222B4B90421A7015D89F
:10488000284B04221A70294B1B78002BE3D1FFF729
:1048900053FDE2E7402815D980281FD810221A704E
:1048A000B0F5807FE7D9204B3F221A7080281D4B3E
:1048B00005D9B0F5FC7F08D810221A70C8E7082285
:1048C0001A70C5E708221A70EAE7B0F57C7F12D9A2
:1048D000B0F5FC6F12D840221A70B9E7B0F5806FBE
:1048E00002D820221A70DBE7B0F5004F94BF4022B7
:1048F00080221A70D4E720221A70A9E7B0F57C6FE5
:1049000094BF8022FF221A70A2E700BF04C00440B7
:1049100014B004406C27FF1F3C29FF1FD822FF1F43
:104920003729FF1F5A1EFF1F6129FF1F3821FF1F54
:10493000F0B41C4B1C4C1D481D494FF400121A606A
:104940002260026822F4802202604FF000674FF07C
:1049500080564FF000554FF080444FF000421F60EA
:104960001E601D601C601A600B68114A1806FBD49B
:104970001368590603D5136843F0400313600D4BC9
:104980001A68120603D51A6842F080021A600A48B3
:104990000A490B4AA024047000230B60F0BC13608A
:1049A000704700BF84E100E084E200E0348004400E
:1049B00024B00B4000B00B4000400640448004404F
:1049C0004880044008B500201CF018F8AE2800D03C
:1049D00008BD002108461CF02BF872B6FFF7A8FFAF
:1049E00048F68000C0F20300D0F800D0D0F804F000
:1049F00008BD00BF38B5094D094C2888000A1EF0D3
:104A0000BDF928781EF0BAF92088000A1EF0B6F920
:104A10002078BDE838401EF0B1B900BF2E29FF1F35
:104A20003429FF1F2DE9F041164B1B78012B17D0BD
:104A3000B0B9154E804608F5A077444633681D5B33
:104A4000280A1EF09BF90434E8B21EF097F9BC4224
:104A5000F4D108F52078B8F5164FECD1BDE8F08117
:104A6000094E00243368185B000A1EF087F933688A
:104A7000185D02341EF082F9B4F5164FF2D1BDE88C
:104A8000F08100BFCD28FF1F3C1EFF1F38B5124B21
:104A90001C7814B1114B1C7874B9114D2B68185B3C
:104AA000000A1EF06BF92B68185D02341EF066F9DF
:104AB000B4F5164FF2D138BD0A4D00242B68185BAF
:104AC000000A1EF05BF92B68185D02341EF056F9DF
:104AD000B4F5163FF2D138BD3821FF1F9C20FF1FCF
:104AE0003C1EFF1F481EFF1F08B5194B18780328EE
:104AF00008BF00201EF042F9164B18781EF03EF950
:104B0000154B18781EF03AF9144B18781EF036F948
:104B1000134B18781EF032F9124B18781EF02EF94C
:104B2000114B18781EF02AF9104B18781EF026F950
:104B30000F4B18781EF022F90E4B187818B10E4B57
:104B4000187880F00100BDE808401EF017B900BFDA
:104B5000CD28FF1F1629FF1FCE28FF1F612BFF1F27
:104B60003A21FF1F7829FF1F591EFF1F3E28FF1FF4
:104B70007D29FF1F511EFF1F2621FF1F10B50F4C5F
:104B800082B020781EF0FAF8237823B100201EF0BE
:104B9000F5F802B010BD0A4B0A4A1B680193019B4D
:104BA000126809489B1AA0FB03308009C0F11E005F
:104BB000C0B21EF0E3F802B010BD00BF6328FF1FB3
:104BC0005C2CFF1FE022FF1FD34D621070B5164B07
:104BD00082B01B688DF80430190A1A0C01AC1B0E48
:104BE0008DF805108DF806208DF80730254602AEA9
:104BF00015F8010B1EF0C2F8B542F9D10B4B1B683A
:104C00008DF80430190A1A0C1B0E8DF805108DF85A
:104C100006208DF8073014F8010B1EF0AFF8B442EF
:104C2000F9D102B070BD00BF3828FF1F2C21FF1F33
:104C300030B50C4B83B01B688DF80430190A1A0C80
:104C40001B0E8DF805108DF806208DF8073001AC8D
:104C500002AD14F8010B1EF091F8AC42F9D103B08B
:104C600030BD00BF3C21FF1F2DE9F041664CA2B0D2
:104C700023680293029D1DF081FF30B923680393DE
:104C8000039B5B1BB3F57A7FF5D31DF077FF0028FC
:104C900035D006A878225D491EF0D8FA042306A96B
:104CA0001AA800221EF060FD0A2240F2E1711EA83F
:104CB0001EF0EAFB1EA91AA81EF026FD014616A842
:104CC0001EF0A4FB12A90023052216A81EF032FD37
:104CD00012A823F083FA044616A81EF013FC1EA89F
:104CE0001EF010FC1AA81EF00DFC74B974201EF002
:104CF00045F806A81EF006FC22B0BDE8F08174203D
:104D00001EF03CF822B0BDE8F0810AA806A90D23E8
:104D10000B221EF029FD1EA90AA8002305221EF061
:104D200009FD1EA823F05AFA06A9044610230EA86E
:104D30000E221EF019FD1EA90EA8002305221EF04A
:104D4000F9FC1EA823F04AFA06A90546132312A867
:104D500011221EF009FD1EA90023052212A81EF033
:104D6000E9FC1EA823F03AFA06A906460A2316A86B
:104D700008221EF0F9FC1EA90023052216A81EF029
:104D8000D9FC1EA823F02AFA06A9074607231AA869
:104D900005221EF0E9FC1EA9002305221AA81EF018
:104DA000C9FC1EA823F01AFA06A9804604231EA8EF
:104DB00000221EF0D9FC04A9002305221EA81EF023
:104DC000B9FC04A823F00AFA3B4632462946019072
:104DD000CDF8008020461BF063FA1EA81EF092FB5F
:104DE0001AA81EF08FFB16A81EF08CFB12A81EF04E
:104DF00089FB0EA81EF086FB0AA81EF083FB1BF0A1
:104E000085F91CF06DF971E75C2CFF1F042EFF1F64
:104E100070B50D4CA51C04F5C07635F8020C000ADF
:104E20001DF0ACFF15F8020C1DF0A8FF6088000A09
:104E30001DF0A4FF043414F8020C1DF09FFFB442CF
:104E400005F10405E9D170BD5821FF1F08B51DF01B
:104E500095FE002810DD1DF055FEC0B201280BD8CC
:104E600078B1094B01221A700022084B82201A7077
:104E7000BDE808401DF082BF0020BDE808401DF0DD
:104E80007DBF0122F1E700BF511EFF1F2621FF1F3A
:104E900008B51DF073FE002804DD1DF033FEC1B21D
:104EA000012904D90020BDE808401DF067BF064B6A
:104EB00001F0010265201A701BF0BAFD8520BDE8E3
:104EC00008401DF05BBF00BF612BFF1F08B51DF040
:104ED00055FE002804DD1DF015FEC1B2012904D9DC
:104EE0000020BDE808401DF049BF064B01F001025B
:104EF00069201A701BF09CFD8620BDE808401DF05B
:104F00003DBF00BF3A21FF1F08B51DF037FE002846
:104F100004DD1DF0F7FDC1B2012904D90020BDE870
:104F200008401DF02BBF064B01F001026A201A70E9
:104F30001BF07EFD8720BDE808401DF01FBF00BFAD
:104F40007829FF1F08B51DF019FE002804DD1DF0AB
:104F5000D9FDC3B2032B04D90020BDE808401DF0E1
:104F60000DBF054A19467F2013701BF061FD882094
:104F7000BDE808401DF002BF591EFF1F08B51DF017
:104F8000FDFD002804DD1DF0BDFDC3B2022B04D9D8
:104F90000020BDE808401DF0F1BE054A1946732007
:104FA00013701BF045FD7A20BDE808401DF0E6BEF9
:104FB0007D29FF1F034B187808B1034B18781DF0AB
:104FC000DDBE00BF3821FF1F9C20FF1F2DE9F041EF
:104FD0001DF0D4FDB0F5C07F24DB154D4FF6FF77F3
:104FE00005F5C0764FF000081DF08CFD04461DF05D
:104FF00089FD00EB042080B2B84214BF25F8020CF2
:1050000025F8028C1DF07EFD04461DF07BFD00EBB3
:10501000042025F8040BB542E6D18920BDE8F04113
:105020001DF0ACBE0020BDE8F0411DF0A7BE00BFE2
:105030005A21FF1F70B51C4D86B02B6802930A20C1
:10504000029E1CF02FFA2A68184B0192019C1B78D3
:10505000A41BFBB106E0B4F57A7F07DC2B68039351
:10506000039CA41BFCF7ECF90028F4D12B680593F2
:10507000059B9B1BB3F57A7F12DA0D4BB5220020FE
:105080001A7006B070BDB4F57A7FEFDC2B6804931C
:10509000049CA41B05201CF097F90028E6D1F2E738
:1050A000012006B070BD00BF5C2CFF1F4029FF1F10
:1050B0003008FF1FF8B599202DED028B1BF09EFCE8
:1050C000431EDBB2022B13D95749584F584E594D46
:1050D00059485A4A00234FF07C540B704FF07E51D0
:1050E0003B7033702B7004601160BDEC028BF8BD17
:1050F00001283FD17E201BF081FCC828E4D17C2010
:105100001BF07CFC484B9FED4E8A187079201BF0F9
:1051100075FC474B18707A201BF070FC454B1870DB
:105120007B201BF06BFC414B18707D201BF066FC54
:1051300007EE900AB8EEE77A3F4BC7EE087AA52053
:10514000C3ED007A1BF05AFC07EE900AB8EEE77A3E
:105150003A4BC7EE087A9FED3B7AC3ED007AF4EE46
:10516000C77AF1EE10FA2ED5BDEC028B4FF07E52CD
:105170001A60F8BD02282ED098201BF03FFCC828EA
:10518000A2D194201BF03AFC274B9FED2D8A18707A
:1051900091201BF033FC264B187092201BF02EFC44
:1051A000244B187093201BF029FC204B187095207D
:1051B0001BF024FC07EE900AB8EEE77A1E4BC7EE10
:1051C000087AA720BCE7B7EE007AF4EEC77AF1EED2
:1051D00010FAC9DC89E790201BF010FCC8287FF486
:1051E00073AF8E201BF00AFC0F4B9FED158A1870D1
:1051F0008B201BF003FC0E4B18708C201BF0FEFB69
:105200000C4B18708D201BF0F9FB084B18708F2089
:105210001BF0F4FB07EE900AB8EEE77A064BC7EEF8
:10522000087AA6208CE700BF5421FF1F1429FF1F16
:105230006029FF1F4829FF1F641EFF1F7420FF1FE6
:105240000000C8423333333F00B5832083B01BF0E6
:10525000D5FB8DF8040084201BF0D0FB8DF80500F1
:1052600085201BF0CBFB8DF8060086201BF0C6FBCB
:105270008DF80700019A024B1A6003B05DF804FB39
:105280002C21FF1F10B565201BF0B8FB724A0128C6
:1052900094BF00F001030023662013701BF0AEFBE7
:1052A0006E4B122894BF02460D2267201A701BF025
:1052B000A5FB6B4A012894BF00F00103002368207E
:1052C00013701BF09BFB012840F2B9800023654A54
:1052D0006B2013701BF092FB634A012894BF00F00F
:1052E000010300236C2013701BF088FB5F4A012828
:1052F00094BF00F0010300236D2013701BF07EFBB0
:105300005B4A012894BF00F0010300236F20137053
:105310001BF074FB574A012894BF00F001030023DF
:10532000692013701BF06AFB01287FD90023524AC1
:10533000732013701BF062FB034610B1022818BFE4
:1053400001234E4A6A2013701BF058FB4C4A012877
:1053500094BF00F001030123712013701BF04EFB7A
:105360000228034659D8474A127812F0040F08BFA2
:105370000023454A722013701BF040FB04280346AB
:1053800040D9424B002487201C701BF037FB0228B9
:1053900045D83F4B187078B189201BF02FFB04468D
:1053A00088201BF02BFB3B4B00EB04248A201C8045
:1053B0001BF024FB384B187082201BF01FFB374B6F
:1053C0001B78032B2ED0C82843D0354B354A1A60A2
:1053D0007F201BF013FB344A344B1478032888BF1A
:1053E0000020012C187009D1A8201BF007FB304BBE
:1053F00001289ABF00F0010018701C70BDE8104031
:10540000FFF758BE214A872013701BF0F7FA0228D5
:10541000BFD91F4B00221A70CEE70023A9E71C4B0F
:105420001C70C9E71E4B234A1A60D1E7154B1A7846
:1054300012F001033FF47BAF00F0010377E7114B5B
:105440001B78C3F38003002B3FF441AF00F001034E
:105450003DE7FFF7F9FEBBE7612BFF1FCE28FF1FDB
:10546000DA22FF1F6228FF1F581EFF1F421EFF1F68
:105470003921FF1F5E29FF1F3A21FF1F7D29FF1FD2
:105480007829FF1F3108FF1F3629FF1F3E28FF1F05
:105490002C29FF1F7A20FF1F4428FF1FCD28FF1F44
:1054A0002C21FF1F8FC2F53C3821FF1F591EFF1F03
:1054B0009C20FF1F0AD7233C30B5104B83B01B68DC
:1054C0008DF80430190A1A0C1B0E8DF805108DF892
:1054D00006208DF8073001AD8324204615F8011B06
:1054E00001341BF0A5FA872CF7D1C82182201BF0CC
:1054F0009FFA034B02221A7003B030BD2C21FF1F0C
:105500006328FF1F30B583B01DF038FB032816DD7C
:105510000E4B1B78032B12D001AC02AD1DF0F2FA3A
:1055200004F8010BAC42F9D1094B019A1A60FFF75C
:10553000C3FF7E2003B0BDE830401DF01FBC00203B
:1055400003B0BDE830401DF019BC00BFCD28FF1FDF
:105550003828FF1F30B583B01DF010FB032816DD7F
:105560000E4B1B78032B12D001AC02AD1DF0CAFA12
:1055700004F8010BAC42F9D1094B019A1A60FFF70C
:105580009BFF7D2003B0BDE830401DF0F7BB00203D
:1055900003B0BDE830401DF0F1BB00BFCD28FF1FB8
:1055A0002C21FF1F2DE9F041774B1A78012A82B098
:1055B00004D1764B1B78002B40F09F80744B4FF04A
:1055C00038401F68FBF782FB0021EF2340F23F12B7
:1055D0000846FCF739F86F4B6F4A1B781B0443F001
:1055E000004343F02C0353631346DA6A02F470411C
:1055F00012F0F00F18BF9A6BB1F5405FF5D807F5C0
:105600001748664D644C07F59E7608F13C08023F4A
:1056100095F800E038464FEA0E4E30F8021F41EA96
:105620000E0141F010416163E36A03F4704213F02C
:10563000F00F18BFA36BB2F5405FF5D86163E36A62
:1056400003F4704213F0F00F18BFA36BB2F5405F84
:10565000F5D88642E1D1708840EA0E0343F010434A
:105660006363E36A03F4704213F0F00F18BFA36B97
:10567000B2F5405FF5D8FBF7BBFF95F800E0384680
:105680004FEA0E4E30F8021F41EA0E0141F0104180
:105690006163E36A03F4704213F0F00F18BFA36B69
:1056A000B2F5405FF5D86163E36A03F4704213F02A
:1056B000F00F18BFA36BB2F5405FF5D8B042E1D14F
:1056C000708840EA0E0343F010436363E36A03F417
:1056D000704213F0F00F18BFA36BB2F5405FF5D81E
:1056E00006F5A076FBF784FFB04507F5A0778FD1CC
:1056F000FBF73EFB02B0BDE8F081294B29491C684D
:1057000001A80023FBF7B0FA0198FBF7DFFA0021AC
:10571000EF2340F23F120846FBF796FF1D4B1E4A4F
:105720001B781B0443F0004343F02C0353631346E0
:10573000DA6A02F4704112F0F00F18BF9A6BB1F5FB
:10574000405FF5D8154B1448197804F515352346F4
:10575000090405F2FE3433F8022B0A4342F01042EA
:105760004263C26A02F4704612F0F00F18BF826BF7
:10577000B6F5405FF5D8A342EDD1B5F8FE03FBF7CF
:1057800037FFFBF7F5FAB5E73821FF1F9C20FF1F15
:105790003C1EFF1F602BFF1F00C002406B1EFF1F3F
:1057A000481EFF1F80C3C9010E4B10B51C784CB1B9
:1057B0008720FCF7B7F90C4B1B7863B10B4B012228
:1057C0001A7010BD2D20FCF7ADF9074B1B7833B9CB
:1057D000074A537010BD064B01225A7010BD034B8F
:1057E0001C7010BD1629FF1F4029FF1F5029FF1FE5
:1057F0004828FF1F10B51DF0C1F9002804DD1DF079
:1058000081F9C0B2012804D90020BDE810401DF084
:10581000B5BA074C00F001002070FFF7C5FF2178F2
:1058200070201BF005F98B20BDE810401DF0A6BAD2
:105830001629FF1F08B580201BF0E0F802280D4B49
:1058400008D80128187008D002280CD00A4B002272
:105850001A7008BD00221A7008BD002207490848C6
:1058600016F03EFEF2E700220649054816F038FE23
:10587000ECE700BFF422FF1F5828FF1FE09304004D
:105880004421FF1F804F12002DE9F04F430089B0E3
:10589000DFF8E8B2DFF8E882AE4AAF4E029003EBE1
:1058A000000A03939BF8000098F800301178AB4A87
:1058B000AB4C127827684FEACA0A06EB0A0943EA9A
:1058C00000230593B9F8083042EA0122190704922F
:1058D00045D5B9F90650D9F81430B9F9042036F98C
:1058E0000A00B9F9021001932B46D9F8105000951F
:1058F000FDF7E0FFB9F80830DA0600F11681DB07A2
:105900004CBF984B984B029A1B68DFF878A2C3F300
:10591000072C5FFA83FE039B88F800E01344DD0048
:1059200006EB0509705BB9F80210B9F80630B9F852
:1059300004208BF800C00B440244FCF7C5FC705BEC
:10594000B9F80210B9F80630B9F804200B44024443
:105950000133013201390138FCF7B6FC99E0834B81
:1059600036F80A001A68B9F804C0B9F80210B9F894
:10597000063088F800204FEA122E0B440CEB000290
:105980008BF800E0FCF730FD774B36F80A001A6818
:10599000B9F804C0B9F80210B9F8063088F8002048
:1059A0004FEA122E0B440CEB00028BF800E0FCF7E0
:1059B0008BFC36F80A00B9F80210B9F80420B9F8DF
:1059C000063002440B440133013201380139FCF73F
:1059D0007BFCB9F80820D5074CBF624B644B1B68B1
:1059E0009007C3F30721DBB288F800308BF8001072
:1059F0006AD4604B039A196821600B7823711D46A5
:105A0000029B91F801A084F805A0D318DB0006EBF7
:105A100003098878D9F80C20A071C978069310463C
:105A2000E171079223F00CFD069BB9F806E0F35AEA
:105A3000B9F80410B9F802C0079A4FEA5A0ACAEB3B
:105A40005E0A03EB51090AEB0C030693474B1B68F4
:105A500000FB05F0591CA9EB500963D03F48190A17
:105A600003703C4B4FF0000E1970DFF818A1104680
:105A70000023069A8AF800E04946FDF767FC039B7D
:105A8000029A134406EBC306338903F00603062B80
:105A90004ED027603B7823717B786371BB78A3710C
:105AA000059B049DFA7888F80030180A8BF80000EE
:105AB0002A48E27105702748290A002301708AF8F4
:105AC000003009B0BDE8F08F2B4B02991868039B9A
:105AD000206003EB010E027822714FEACE0E06EB36
